:020000040800F2
:1030000008050020D5300008794800087B480008F2
:1030100000000000000000000000000000000000B0
:103020000000000000000000000000007F480008D1
:1030300000000000000000008148000883480008EC
:10304000E7300008E7300008E7300008E730000804
:10305000E7300008E7300008E7300008E7300008F4
:10306000E7300008E7300008E7300008E7300008E4
:10307000E7300008E7300008E7300008874800081C
:1030800089480008E730000800000000E730000829
:10309000E7300008E7300008E7300008E7300008B4
:1030A000E7300008E7300008E7300008454B00082B
:1030B0008548000800000000E7300008000000001C
:1030C0000348854601F0DAFD00480047C347000881
:1030D000080500200448804704480047FEE7FEE753
:1030E000FEE7FEE7FEE7FEE7BB310008C13000085F
:1030F0000CB500200190009072480068012109047D
:1031000008437049086000BF6E4800680121490407
:10311000084000900198401C01900098002804D1BC
:103120000521090201988842EED166480068012114
:103130004904084202D00120009001E000200090E4
:103140000098012838D111205F4908605D48406827
:103150005C494860084640684860084640683F212E
:10316000090488435749486008464068012109041A
:10317000084354494860084600680121090608438D
:103180005049086000BF4F480068012149060842C5
:10319000F9D04C484068800880004A494860084699
:1031A0004068022108434749486000BF45484068DD
:1031B0000C2108400828F9D10CBD10B54148006821
:1031C000012108433F490860084640683F490840DC
:1031D0003C494860084600683D4908403949086054
:1031E000084600680121890488433649086008467A
:1031F00040683F2109048843324948600846C06A54
:1032000000090001C8620846006BFF215431884361
:103210002C4908630846406B400840004863002082
:103220008860FFF765FF10BDF8B500250024002673
:103230000027244840680C2108400546002D04D092
:10324000042D06D0082D2AD107E022482249086023
:1032500029E020482049086025E01A4840680F21ED
:1032600089040840044617484068012109040840C1
:103270000646A00C841C002E04D118486043164951
:1032800008600BE00F48C06A0007000F471C394672
:10329000104801F0DDFC60430F49086003E00D4871
:1032A0000D49086000BF00BF06484068F021084093
:1032B00000090B490D5C08480068E84006490860B1
:1032C000F8BD000000100240002002400CB8FFF8DA
:1032D000FFFFF6FE00127A00C400002000093D0046
:1032E000C800002001460020FE4A10684008400047
:1032F00002460A431046FB4A10607047002806D079
:10330000F849096810221143F64A116005E0F549B1
:10331000096810229143F34A116070470020F14977
:1033200009682022114201D0012000E000207047EE
:10333000EC4800698021084204D0EB48E949486024
:10334000EA4848607047E748006980210843E5493A
:10335000086170470420E349C968C907C90F01D053
:1033600001200EE0DF49C9681022114201D002207D
:1033700007E0DC49C9680422114201D0032000E0C3
:103380000420704710B503460424FFF7E3FF04460A
:1033900003E0FFF7DFFF04465B1E012C01D1002B89
:1033A000F7D1002B00D10524204610BD30B50446CE
:1033B00004250B200004FFF7E5FF0546042D17D177
:1033C000C848006902210843C649086108464461AB
:1033D000006940210843C34908610B200004FFF73E
:1033E000D1FF0546BF48006902218843BD490861F5
:1033F000284630BD10B504240B200004FFF7C2FF9F
:103400000446042C16D1B748006904210843B54985
:1034100008610846006940210843B24908610B2051
:103420000004FFF7AFFF0446AE480069042188435B
:10343000AC490861204610BD78B506460C46042507
:10344000002000900B200004FFF79CFF0546042D90
:1034500024D1A448006901210843A24908613480AD
:103460000B200004FFF78EFF0546042D10D1B01C81
:103470000090200C009908800B200004FFF782FFC9
:10348000054698480069400840009649086105E0F3
:10349000944800694008400092490861284678BD78
:1034A00070B504460D4604260B200004FFF76AFFA2
:1034B0000646042E11D18B48006901210843894931
:1034C000086125800B200004FFF75CFF0646854855
:1034D00000694008400083490861304670BD81485A
:1034E000006901214902084204D17F487D49886072
:1034F0007E48886070477B48006901214902884303
:1035000078490861704777480069012149030843F9
:1035100074490861704700207249C9690622114246
:1035200001D0012000E00020704730B5AA25042416
:10353000FFF7F1FF002800D000250B200004FFF763
:1035400021FF0446042C36D1664800692021084337
:1035500064490861084600694021084361490861DF
:103560000B200004FFF70EFF0446042C1BD15D481E
:103570000069202188435B490861084600691021E1
:103580000843584908615A4805800B200004FFF79A
:10359000F9FE0446052C0ED05248006910218843DC
:1035A0005049086107E0052C05D04E4800691021FC
:1035B00088434C490861204630BDF0B504464D4E65
:1035C00037460425E443E6B2FF2000022040070A04
:1035D0000B200004FFF7D6FE0546042D21D14148FB
:1035E0000069102108433F490861FF2E06D040487A
:1035F00006810B200004FFF7C5FE0546042D08D107
:10360000FF2F06D03A4847810B200004FFF7BAFE8F
:103610000546052D05D033480069102188433149FE
:1036200008612846F0BD30B5054604240B2000048F
:10363000FFF7A8FE0446042C36D12A480069202151
:103640000843284908610846006940210843254984
:1036500008610B200004FFF795FE0446042C1BD1E3
:1036600020480069202188431E49086108460069F6
:10367000102108431B4908611D4805800B200004E8
:10368000FFF780FE0446052C0ED016480069102175
:1036900088431449086107E0052C05D011480069EA
:1036A000202188430F490861204630BDF0B505460A
:1036B0000E46174604240B200004FFF763FE044661
:1036C000042C24D1074800691021084305490861EA
:1036D00028463043F82139430843054948800B20E8
:1036E000000409E00020024023016745AB89EFCDCB
:1036F00000F8FF1FFFFF0000FFF744FE0446052C03
:1037000005D06C480069102188436A490861204649
:10371000F0BD30B5054604240B200004FFF732FE4F
:103720000446042C16D163480069102108436149FE
:103730000861EF202843604948800B200004FFF710
:1037400021FE0446052C05D05A4800691021884303
:1037500058490861204630BD30B5054604240B2089
:103760000004FFF70FFE0446042C16D151480069EF
:10377000102108434F490861DF2028434E49488003
:103780000B200004FFF7FEFD0446052C05D0494838
:1037900000691021884347490861204630BD30B593
:1037A000054604240B200004FFF7ECFD0446042C1E
:1037B00016D140480069102108433E490861BF20E6
:1037C00028433D4948800B200004FFF7DBFD0446F9
:1037D000052C05D037480069102188433549086118
:1037E000204630BD30B5054604240B200004FFF709
:1037F000C9FD0446042C16D12E4800691021084347
:103800002C490861882028432B4948800B2000045C
:10381000FFF7B8FD0446052C05D0264800691021A5
:10382000884324490861204630BD70B505460E46E0
:1038300004240B200004FFF7A5FD0446042C13D13B
:103840001C480069102108431A4908612E800B208A
:103850000004FFF797FD0446052C05D015480069C4
:103860001021884313490861204670BD1148C06982
:103870000004000E70470F48006A7047002905D009
:103880000C4A126902430B4B1A6104E0094A12699F
:103890008243084B1A61704701460020054AD268EE
:1038A0000A4201D0012000E0002070470149C860B1
:1038B000704700000020024000F8FF1F10B50446CA
:1038C0000920C006844209D10121480400F0ECFB24
:1038D00000210120400400F0E7FB30E06D48844205
:1038E00008D10121000200F0DFFB0021200200F0DE
:1038F000DBFB24E06848844208D10121000200F08B
:10390000D3FB0021200200F0CFFB18E06348844283
:1039100009D10121080500F0C7FB002101200005A5
:1039200000F0C2FB0BE05E48844208D1012188050B
:1039300000F0BAFB00210120800500F0B5FB10BDAE
:10394000F0B50A4600210023002400BF3DE0012518
:103950008D402B4615681D402C469C4234D115796C
:10396000012D02D01579022D16D185684F0003264E
:10397000BE40B543856055794E00B54086683543F5
:103980008560858801268E40B54385808588967937
:103990008E40B6B23543858005684F000326BE4091
:1039A000B543056015794E00B5400668354305609E
:1039B000C5684F000326BE40B543C560D5794E00AB
:1039C000B540C6683543C560491C1029BFD3F0BD5A
:1039D000344901600021017102214171002181718E
:1039E000C171704708B5012212040092009A0A437F
:1039F0000092009AC261C161009AC261C2690092DC
:103A0000C269009208BD02460020138A0B4201D011
:103A1000012000E0002070470146088A70470246F6
:103A20000020938A0B4201D0012000E00020704763
:103A30000146888A70478161704701857047002A76
:103A400001D0816100E00185704781827047F0B547
:103A5000002300244D07EE0E1546B5402B46CD1031
:103A6000AE0005462035AD594E07F70E0F26BE4075
:103A7000B543CE10B60007462037BD51CD10AE007D
:103A80003D46AD591D432C46CD10AD003E46745108
:103A9000F0BD00000004004800080048000C004889
:103AA00000140048FFFF000000218278002A27D080
:103AB000274A03231B02D21803789B109B00D1587E
:103AC00002789207D30EFF229A400B469343194681
:103AD00042789207120E03789B07DB0E9A4011433F
:103AE0001B4A03231B02D21803789B109B00D15062
:103AF0000278D306DB0E01229A40154B1A6007E0CC
:103B00000278D306DB0E01229A40114B80331A60F3
:103B10007047002905D00F4A126902430D4B1A6104
:103B200004E00C4A126982430A4B1A617047042868
:103B300006D10949096904221143074A116105E0C8
:103B40000549096904229143034A11617047000045
:103B500000E100E000ED00E000E000E0FD4800686A
:103B600001210843FB49086008464068FA490840BB
:103B7000F849486008460068F8490840F549086077
:103B800008460068012189048843F2490860084614
:103B900040683F2109048843EE4948600846C06AEE
:103BA00000090001C8620846006BFF2154318843B8
:103BB000E84908630846406B40084000486300201D
:103BC000886070470021E34A917011468870704701
:103BD00010B502460021002300205111002902D116
:103BE000DC4C23680BE0012902D1DA4C236A06E0A1
:103BF000022902D1D74C636A01E0D64C636BD1062F
:103C0000C90E01248C401C4201D0012000E000209C
:103C100010BD38B5002000900024002500BF112001
:103C2000FFF7D6FF05460098401C009005210902C9
:103C30000098884201D0002DF1D01120FFF7C8FF75
:103C4000002801D0012400E00024204638BD0146B0
:103C50000020C04A1068F82302469A431046CA0062
:103C60001043BC4A10607047002806D0B949096863
:103C700001221143B74A116005E0B64909684908B5
:103C80004900B44A1160704701460020B14A506BA8
:103C9000F82302469A431046CA001043AD4A5063C7
:103CA0007047002806D0AB49496B01221143A94A4D
:103CB000516305E0A749496B49084900A54A51638A
:103CC0007047002806D0A349496B04229143A14ABA
:103CD000516305E09F49496B042211439D4A51639A
:103CE00070479C49096A490849009A4A116211467D
:103CF000096A04229143974A11621146096A0143F5
:103D0000116270479349096A18229143914A1162DE
:103D10001146096A014311627047002806D08D4997
:103D2000496A012211438B4A516205E08949496A77
:103D300049084900874A51627047864A52683D23C4
:103D40001B049A43834B5A601A46526803460B433E
:103D50001A43804B5A607047002807D07D49096894
:103D60000122120611437B4A116006E07949096875
:103D7000012212069143774A1160704701460020E4
:103D8000744AD06A0009000102460A431046714A8B
:103D9000D0627047002807D06E4909680122D2041A
:103DA00011436C4A116006E06A4909680122D20495
:103DB0009143684A116070476649C871704701466F
:103DC0000020644A50688008800002460A4310467A
:103DD000604A506070475F4840680C210840704757
:103DE000014600205B4A5068F02302469A43104681
:103DF00002460A431046574A506070470146002069
:103E0000544A506807231B0202469A431046024652
:103E10000A4310464F4A506070474E494968012294
:103E2000920391434B4A51601146496882B2114353
:103E3000484A51601146096B92159143454A1163F6
:103E40001146096B020C1143424A11637047414904
:103E5000096B402291433F4A11631146096B0143AC
:103E6000116370473B49096B10229143394A116332
:103E70001146096B0143116370473649096B890884
:103E80008900344A11631146096B0143116370477D
:103E9000FEB5044600250026002001900090002772
:103EA0002C4840680C2108400546002D04D0042D04
:103EB00005D0082D28D105E02948206027E02848B2
:103EC000206024E0234840680F218904084006460A
:103ED000204840680121090408400190B00C861C6C
:103EE0000198002803D11F48704320600BE0194857
:103EF000C06A0007000F401C00901948009900F0AC
:103F0000A7FE7043206002E01548206000BF00BF9C
:103F100010484068F021084005462D091248475DC9
:103F20002068F84060600B4840680721090208409B
:103F300005462D0A0C48475D6068F840A0600548BA
:103F4000006BFF2101310840884211D00748E06032
:103F50001CE00000001002400CB8FFF8FFFFF6FE66
:103F600000127A0000093D00D8000020809FD50093
:103F700074484068012189030840884203D0A06842
:103F80004008E06002E0A0688008E0606D48006BD7
:103F900040210840402802D06B48206102E0012007
:103FA000C00320616748006B10210840102802D030
:103FB0006648606101E0206860616248006B8007CC
:103FC000800F02D1A068A06119E05E48006B8007F5
:103FD000800F012802D12068A06110E05948006BD1
:103FE0008007800F022802D18003A06107E05548B6
:103FF000006B8007800F032801D15448A061FEBDEB
:104000005049096A01434F4A11627047002807D09E
:104010004C49096A0122D20311434A4A116206E05F
:104020004849096A0122D2039143464A1162704706
:10403000002807D04349096A012212041143414A6A
:10404000116206E03F49096A0122120491433D4A88
:1040500011627047002905D03A4A52690243394B30
:104060005A6104E0374A52698243364B5A617047BD
:10407000002905D0334A92690243324B9A6104E029
:10408000304A926982432F4B9A617047002905D0CC
:104090002C4AD26902432B4BDA6104E0294AD269E7
:1040A0008243284BDA617047002905D0254A926A7D
:1040B0000243244B9A6204E0224A926A8243214BD3
:1040C0009A627047002905D01E4AD26802431D4BF0
:1040D000DA6004E01B4AD26882431A4BDA60704708
:1040E000002905D0174A12690243164B1A6104E0F1
:1040F000144A12698243134B1A617047002905D094
:10410000104A527A02430F4B5A7204E00D4A527A17
:1041100082430C4B5A7270470A48406A01210906D3
:10412000084308494862704701460020054A9268E2
:104130000A4201D0012000E0002070470149887246
:1041400070470000001002401280000000127A0048
:104150003A4800688007800F38490860002088606E
:1041600000213648C160016141618069FF21013150
:104170000843324988617047014600202F4A106881
:104180008008800002460A4310462C4A106070479F
:10419000002905D0294A12680243284B1A6004E01E
:1041A000264A12688243254B1A607047002905D0C1
:1041B000224A12680243214B1A6004E01F4A126827
:1041C00082431E4B1A60704730B500228B071C0FCC
:1041D0000F23A3401A46194B08338C10A4001B5917
:1041E0009343164C08348D10AD00635123468C1058
:1041F000A4001B598C07250F0446AC4023430F4CE9
:1042000008348D10AD00635130BD0C4989690143FC
:104210000A4A9161704701460020084A9269FF23CB
:1042200001331A4201D0012000E000207047034909
:1042300089690143014A9161704700000000014013
:1042400010B50446F648844209D101218803FFF7DE
:1042500039FF002101208003FFF734FF0BE0F14814
:10426000844208D101214804FFF73AFF00210120D0
:104270004004FFF735FF10BDF0B589B005460E4686
:1042800000240020089000BF00BF286840084000BC
:1042900028606C6803210903204688430446B068FF
:1042A00004436C602C68E0480440F168706808437F
:1042B0003169084304432C60AC680321090220469D
:1042C0008843044670690443AC606846FFF7E0FD2C
:1042D000D348854202D10698089001E002980890E0
:1042E00028680121C903084209D032685100192306
:1042F000089A5A43104600F0ABFC074608E03268C3
:1043000091001923089A5A43104600F0A1FC074671
:104310006421384600F09CFC0401200964214843D4
:10432000381A079028680121C90308420AD0079962
:10433000C90008463230642100F08AFC4007400F73
:10434000044309E00799090108463230642100F06E
:104350007FFC0007000F0443AC8109B0F0BD4B2186
:10436000C9010160002141608160C1600C210161CF
:1043700000214161704710B5002242680F242402D9
:104380001346A3431A464C680B6823438C682343A7
:10439000CC6823431A43426010BD00210160416094
:1043A0008160C1607047002904D0026801231A436C
:1043B000026003E002685208520002607047002A5F
:1043C00003D003680B43036002E003688B43036080
:1043D0007047002905D002680123DB031A430260FD
:1043E00004E002680123DB039A430260704700295E
:1043F00005D082680123DB021A43826004E08268F0
:104400000123DB029A4382607047002905D042688D
:104410000123DB041A43426004E042680123DB0409
:104420009A4342607047002905D0426801239B04EB
:104430001A43426004E0426801239B049A434260AD
:104440007047002A03D043680B43436002E043688F
:104450008B4343607047002905D042680123DB038A
:104460001A43426004E042680123DB039A4342603E
:104470007047002905D042680123DB051A434260DA
:1044800004E042680123DB059A43426070474269B9
:10449000120E1206426142690A4342617047028A63
:1044A000FF231B021A400282028A0A4302827047DB
:1044B000002904D0026802231A43026003E0026864
:1044C00002239A4302607047826803231B059A43C4
:1044D000826082680A4382607047002905D0426882
:1044E00001231B051A43426004E0426801231B05B7
:1044F0009A4342607047426803235B059A434260D7
:1045000042680A4342607047C1690122D203914365
:10451000C1617047CA05D20D028570470146888C7B
:10452000C005C00D704742681202120A426042681C
:104530000B061A4342607047002905D00268012328
:104540005B031A43026004E0026801235B039A43A1
:104550000260704702680123DB029A43026002682E
:104560000A4302607047426810239A4342604268DF
:104570000A4342607047426820239A43426042687F
:104580000A4342607047002905D0426801239B031B
:104590001A43426004E0426801239B039A4342604D
:1045A0007047002904D0826808231A43826003E020
:1045B000826808239A4382607047028AD2B20282DC
:1045C000028A0B021A4302827047002904D08268D3
:1045D00020231A43826003E0826820239A4382608A
:1045E0007047002904D0826810231A43826003E0D8
:1045F000826810239A4382607047826807235B04B5
:104600009A43826082684B041A4382607047426911
:104610001202120A426142690B061A434261704754
:104620000038014000440040F3E9FFFF82680423A2
:104630009A43826082680A4382607047002904D0EE
:10464000826802231A43826003E0826802239A434D
:1046500082607047002905D0826801239B031A43BA
:10466000826004E0826801239B039A438260704762
:1046700082680123DB039A43826082680A43826076
:10468000704702681F235B059A43026002684B056E
:104690001A430260704702681F231B049A4302609A
:1046A00002680B041A4302607047002A03D0836833
:1046B0000B43836002E083688B43836070478268AA
:1046C00001235B039A43826082680A4382607047D9
:1046D000F8B5034600240026009600250020184661
:1046E0000E04340ECEB200960127009EB7403D4620
:1046F000022C01D1001D02E0032C00D10830002A59
:1047000003D006682E43066002E00668AE430660EA
:10471000F8BD002A03D0038B0B43038302E0038B15
:104720008B4303837047826801231B039A43826093
:1047300082680A438260704702460020D3690B42B8
:1047400001D0012000E0002070470162704770B581
:1047500002460B4600240021002500201E04350ED1
:10476000D9B201268E403146012D02D11668314062
:1047700006E0022D02D15668314001E096683140D2
:104780001C0C0126A6403446D6693440002903D0CB
:10479000002C01D0012000E0002070BD10B50023E6
:1047A00000220B0C01249C402246026210BD000036
:1047B00001B502E00098401E009000980028F9D151
:1047C00008BD00201D4908700FE01C4800788000DB
:1047D0001B4940180068194909788900194A505046
:1047E00016480078401C1549087014480078302895
:1047F000EBDB01210846FFF765FC0320FFF7BCFC5B
:10480000114800790D49087000F04EF84B20C001A6
:1048100000F0D5F800F03AF80CA000F041FA0CE0F6
:1048200000F03BF80E48FFF7C3FF00F02FF80C48EC
:10483000FFF7BEFF0BA000F033FAF1E7E80000201D
:104840000030000800000020F04C000863686F6E24
:104850006771696C6521212121200D0A000000008B
:10486000FFFF03004150502052756E696E67212191
:10487000212121200D0A0000704700BFFEE770478C
:1048800070477047704770477047000010B50121AE
:1048900049021148FFF7CFF810BD10B501214902B8
:1048A0000D48FFF7CAF810BD1CB50121C804FFF779
:1048B000D1FB0120400200900121684601710021D6
:1048C00081710221C1710121417169460248FFF7DE
:1048D00037F8FFF7DBFF1CBD000800481CB50121BD
:1048E0004804FFF7B7FB01218803FFF7C1FB012252
:1048F0000921C806FFF7ABF801220A210920C006EA
:10490000FFF7A5F8012040020090022168460171DE
:1049100003214171002181710121C1716946092082
:10492000C006FFF70DF801208002009069460920BB
:10493000C006FFF705F81CBD1CB501214804FFF7B0
:1049400089FB01214804FFF7A1FB01220221092074
:10495000C006FFF77CF8012203210920C006FFF7FB
:1049600076F804200090022168460171032141710C
:10497000002181710121C17169460920C006FEF73D
:10498000DFFF0820009069460920C006FEF7D8FF27
:104990001CBD08B51B216846017000214170012132
:1049A0008170FFF781F808BD08B51C2168460170C9
:1049B0000021417001218170FFF776F808BD10B524
:1049C00086B00446FFF78AFFFFF7E3FF009400205C
:1049D00001900290039005900C200490694676485F
:1049E000FFF74AFC012275497348FFF771FE012168
:1049F0007148FFF7D8FC06B010BD10B586B004466C
:104A0000FFF79AFFFFF7D0FF00940020019002907B
:104A1000039005900C20049069466948FFF72CFC30
:104A2000012266496648FFF753FE01216448FFF7FB
:104A3000BAFC06B010BD00BF5F49C96980221142AF
:104A4000FAD05D4920310881704700BF5C49C969CF
:104A500080221142FAD05A492031088170470BE078
:104A600000BF554AD26980231A42FAD00278524BCD
:104A700020331A81401C491E0029F1D170470BE0F8
:104A800000BF4F4AD26980231A42FAD002784C4BB9
:104A900020331A81401C491E0029F1D1704770B59E
:104AA00004460D46E1B24448FFF734FD00BF8021C3
:104AB0004148FFF741FE0028F9D0204670BD10B5EF
:104AC000044600BF20213C48FFF736FE0028F9D0FD
:104AD0003948FFF723FD10BD012080F3108800BF87
:104AE00000BFBFF34F8F37483749C860BFF34F8FC0
:104AF00000BF00BFFEE730B504460D4633480078DE
:104B000080003349401833490988405CA04205D1F0
:104B100030480088401C2F49088002E000202D49C1
:104B200008802C48008804280AD1002029490880E0
:104B3000A900294A88180421FFF791FF012030BD00
:104B40000020FCE770B51D491B48FFF700FE002858
:104B500030D0194820308088C5B21C480078002821
:104B600002D001281FD10BE0184801782846FFF732
:104B7000C2FF0446002C02D001201449087018E03E
:104B8000124801782846FFF7B6FF0446002C09D0EA
:104B900000200E49087001201049088000F03CF800
:104BA000FFF79AFF05E00020084908700B490880CC
:104BB00000BF00BF70BD00000038014005010500C6
:104BC000004400400400FA0500ED00E0FE00002073
:104BD000EE000020EC000020F6000020EA0000209B
:104BE00001460888704770B504460D4629462046A0
:104BF000FEF756FC042801D1012070BD0020FCE71F
:104C000070B5044625462846FEF7D0FB042801D19E
:104C1000002070BD0120FCE710B5FEF789FB0A48B3
:104C2000FFF7DEFF04460848FFF7EAFF0748844223
:104C300000D100242020044321460348FFF7D3FF7E
:104C4000FEF781FB10BD000000280008FFFF0000F8
:104C500030B50B46014600202022012409E00D4614
:104C6000D5409D4205D31D469540491B254695409C
:104C700040191546521E002DF1DC30BD064C0125B1
:104C8000064E05E02046E36807C82B4398471034DA
:104C9000B442F7D3FEF718FAF0EC000820ED000854
:104CA00010B5024A024900F014F810BD9F4A0008EE
:104CB0000001002002E008C8121F08C1002AFAD132
:104CC00070477047002001E001C1121F002AFBD18C
:104CD0007047F8B516460F460446002503E03946EE
:104CE000B0476D1C641C20780028F8D12846F8BD18
:104CF00001000000020000000100000001000000AF
:104D0000020000000100000001000000020000009D
:104D1000010000000100000002000000010000008E
:104D2000010000000200000001000000010000007E
:104D3000020000000100000001000000020000006D
:104D4000010000000100000002000000010000005E
:104D5000010000000200000001000000010000004E
:104D6000020000000100000001000000020000003D
:104D7000010000000100000002000000010000002E
:104D8000010000000200000001000000010000001E
:104D9000020000000100000001000000020000000D
:104DA00001000000010000000200000001000000FE
:104DB00001000000020000000100000001000000EE
:104DC00002000000010000000100000002000000DD
:104DD00001000000010000000200000001000000CE
:104DE00001000000020000000100000001000000BE
:104DF00002000000010000000100000002000000AD
:104E0000010000000100000002000000010000009D
:104E1000010000000200000001000000010000008D
:104E2000020000000100000001000000020000007C
:104E3000010000000100000002000000010000006D
:104E4000010000000200000001000000010000005D
:104E5000020000000100000001000000020000004C
:104E6000010000000100000002000000010000003D
:104E7000010000000200000001000000010000002D
:104E8000020000000100000001000000020000001C
:104E9000010000000100000002000000010000000D
:104EA00001000000020000000100000001000000FD
:104EB00002000000010000000100000002000000EC
:104EC00001000000010000000200000001000000DD
:104ED00001000000020000000100000001000000CD
:104EE00002000000010000000100000002000000BC
:104EF00001000000010000000200000001000000AD
:104F0000010000000200000001000000010000009C
:104F1000020000000100000001000000020000008B
:104F2000010000000100000002000000010000007C
:104F3000010000000200000001000000010000006C
:104F4000020000000100000001000000020000005B
:104F5000010000000100000002000000010000004C
:104F6000010000000200000001000000010000003C
:104F7000020000000100000001000000020000002B
:104F8000010000000100000002000000010000001C
:104F9000010000000200000001000000010000000C
:104FA00002000000010000000100000002000000FB
:104FB00001000000010000000200000001000000EC
:104FC00001000000020000000100000001000000DC
:104FD00002000000010000000100000002000000CB
:104FE00001000000010000000200000001000000BC
:104FF00001000000020000000100000001000000AC
:10500000020000000100000001000000020000009A
:10501000010000000100000002000000010000008B
:10502000010000000200000001000000010000007B
:10503000020000000100000001000000020000006A
:10504000010000000100000002000000010000005B
:10505000010000000200000001000000010000004B
:10506000020000000100000001000000020000003A
:10507000010000000100000002000000010000002B
:10508000010000000200000001000000010000001B
:10509000020000000100000001000000020000000A
:1050A00001000000010000000200000001000000FB
:1050B00001000000020000000100000001000000EB
:1050C00002000000010000000100000002000000DA
:1050D00001000000010000000200000001000000CB
:1050E00001000000020000000100000001000000BB
:1050F00002000000010000000100000002000000AA
:10510000010000000100000002000000010000009A
:10511000010000000200000001000000010000008A
:105120000200000001000000010000000200000079
:10513000010000000100000002000000010000006A
:10514000010000000200000001000000010000005A
:105150000200000001000000010000000200000049
:10516000010000000100000002000000010000003A
:10517000010000000200000001000000010000002A
:105180000200000001000000010000000200000019
:10519000010000000100000002000000010000000A
:1051A00001000000020000000100000001000000FA
:1051B00002000000010000000100000002000000E9
:1051C00001000000010000000200000001000000DA
:1051D00001000000020000000100000001000000CA
:1051E00002000000010000000100000002000000B9
:1051F00001000000010000000200000001000000AA
:105200000100000002000000010000000100000099
:105210000200000001000000010000000200000088
:105220000100000001000000020000000100000079
:105230000100000002000000010000000100000069
:105240000200000001000000010000000200000058
:105250000100000001000000020000000100000049
:105260000100000002000000010000000100000039
:105270000200000001000000010000000200000028
:105280000100000001000000020000000100000019
:105290000100000002000000010000000100000009
:1052A00002000000010000000100000002000000F8
:1052B00001000000010000000200000001000000E9
:1052C00001000000020000000100000001000000D9
:1052D00002000000010000000100000002000000C8
:1052E00001000000010000000200000001000000B9
:1052F00001000000020000000100000001000000A9
:105300000200000001000000010000000200000097
:105310000100000001000000020000000100000088
:105320000100000002000000010000000100000078
:105330000200000001000000010000000200000067
:105340000100000001000000020000000100000058
:105350000100000002000000010000000100000048
:105360000200000001000000010000000200000037
:105370000100000001000000020000000100000028
:105380000100000002000000010000000100000018
:105390000200000001000000010000000200000007
:1053A00001000000010000000200000001000000F8
:1053B00001000000020000000100000001000000E8
:1053C00002000000010000000100000002000000D7
:1053D00001000000010000000200000001000000C8
:1053E00001000000020000000100000001000000B8
:1053F00002000000010000000100000002000000A7
:105400000100000001000000020000000100000097
:105410000100000002000000010000000100000087
:105420000200000001000000010000000200000076
:105430000100000001000000020000000100000067
:105440000100000002000000010000000100000057
:105450000200000001000000010000000200000046
:105460000100000001000000020000000100000037
:105470000100000002000000010000000100000027
:105480000200000001000000010000000200000016
:105490000100000001000000020000000100000007
:1054A00001000000020000000100000001000000F7
:1054B00002000000010000000100000002000000E6
:1054C00001000000010000000200000001000000D7
:1054D00001000000020000000100000001000000C7
:1054E00002000000010000000100000002000000B6
:1054F00001000000010000000200000001000000A7
:105500000100000002000000010000000100000096
:105510000200000001000000010000000200000085
:105520000100000001000000020000000100000076
:105530000100000002000000010000000100000066
:105540000200000001000000010000000200000055
:105550000100000001000000020000000100000046
:105560000100000002000000010000000100000036
:105570000200000001000000010000000200000025
:105580000100000001000000020000000100000016
:105590000100000002000000010000000100000006
:1055A00002000000010000000100000002000000F5
:1055B00001000000010000000200000001000000E6
:1055C00001000000020000000100000001000000D6
:1055D00002000000010000000100000002000000C5
:1055E00001000000010000000200000001000000B6
:1055F00001000000020000000100000001000000A6
:105600000200000001000000010000000200000094
:105610000100000001000000020000000100000085
:105620000100000002000000010000000100000075
:105630000200000001000000010000000200000064
:105640000100000001000000020000000100000055
:105650000100000002000000010000000100000045
:105660000200000001000000010000000200000034
:105670000100000001000000020000000100000025
:105680000100000002000000010000000100000015
:105690000200000001000000010000000200000004
:1056A00001000000010000000200000001000000F5
:1056B00001000000020000000100000001000000E5
:1056C00002000000010000000100000002000000D4
:1056D00001000000010000000200000001000000C5
:1056E00001000000020000000100000001000000B5
:1056F00002000000010000000100000002000000A4
:105700000100000001000000020000000100000094
:105710000100000002000000010000000100000084
:105720000200000001000000010000000200000073
:105730000100000001000000020000000100000064
:105740000100000002000000010000000100000054
:105750000200000001000000010000000200000043
:105760000100000001000000020000000100000034
:105770000100000002000000010000000100000024
:105780000200000001000000010000000200000013
:105790000100000001000000020000000100000004
:1057A00001000000020000000100000001000000F4
:1057B00002000000010000000100000002000000E3
:1057C00001000000010000000200000001000000D4
:1057D00001000000020000000100000001000000C4
:1057E00002000000010000000100000002000000B3
:1057F00001000000010000000200000001000000A4
:105800000100000002000000010000000100000093
:105810000200000001000000010000000200000082
:105820000100000001000000020000000100000073
:105830000100000002000000010000000100000063
:105840000200000001000000010000000200000052
:105850000100000001000000020000000100000043
:105860000100000002000000010000000100000033
:105870000200000001000000010000000200000022
:105880000100000001000000020000000100000013
:105890000100000002000000010000000100000003
:1058A00002000000010000000100000002000000F2
:1058B00001000000010000000200000001000000E3
:1058C00001000000020000000100000001000000D3
:1058D00002000000010000000100000002000000C2
:1058E00001000000010000000200000001000000B3
:1058F00001000000020000000100000001000000A3
:105900000200000001000000010000000200000091
:105910000100000001000000020000000100000082
:105920000100000002000000010000000100000072
:105930000200000001000000010000000200000061
:105940000100000001000000020000000100000052
:105950000100000002000000010000000100000042
:105960000200000001000000010000000200000031
:105970000100000001000000020000000100000022
:105980000100000002000000010000000100000012
:105990000200000001000000010000000200000001
:1059A00001000000010000000200000001000000F2
:1059B00001000000020000000100000001000000E2
:1059C00002000000010000000100000002000000D1
:1059D00001000000010000000200000001000000C2
:1059E00001000000020000000100000001000000B2
:1059F00002000000010000000100000002000000A1
:105A00000100000001000000020000000100000091
:105A10000100000002000000010000000100000081
:105A20000200000001000000010000000200000070
:105A30000100000001000000020000000100000061
:105A40000100000002000000010000000100000051
:105A50000200000001000000010000000200000040
:105A60000100000001000000020000000100000031
:105A70000100000002000000010000000100000021
:105A80000200000001000000010000000200000010
:105A90000100000001000000020000000100000001
:105AA00001000000020000000100000001000000F1
:105AB00002000000010000000100000002000000E0
:105AC00001000000010000000200000001000000D1
:105AD00001000000020000000100000001000000C1
:105AE00002000000010000000100000002000000B0
:105AF00001000000010000000200000001000000A1
:105B00000100000002000000010000000100000090
:105B1000020000000100000001000000020000007F
:105B20000100000001000000020000000100000070
:105B30000100000002000000010000000100000060
:105B4000020000000100000001000000020000004F
:105B50000100000001000000020000000100000040
:105B60000100000002000000010000000100000030
:105B7000020000000100000001000000020000001F
:105B80000100000001000000020000000100000010
:105B90000100000002000000010000000100000000
:105BA00002000000010000000100000002000000EF
:105BB00001000000010000000200000001000000E0
:105BC00001000000020000000100000001000000D0
:105BD00002000000010000000100000002000000BF
:105BE00001000000010000000200000001000000B0
:105BF00001000000020000000100000001000000A0
:105C0000020000000100000001000000020000008E
:105C1000010000000100000002000000010000007F
:105C2000010000000200000001000000010000006F
:105C3000020000000100000001000000020000005E
:105C4000010000000100000002000000010000004F
:105C5000010000000200000001000000010000003F
:105C6000020000000100000001000000020000002E
:105C7000010000000100000002000000010000001F
:105C8000010000000200000001000000010000000F
:105C900002000000010000000100000002000000FE
:105CA00001000000010000000200000001000000EF
:105CB00001000000020000000100000001000000DF
:105CC00002000000010000000100000002000000CE
:105CD00001000000010000000200000001000000BF
:105CE00001000000020000000100000001000000AF
:105CF000020000000100000001000000020000009E
:105D0000010000000100000002000000010000008E
:105D1000010000000200000001000000010000007E
:105D2000020000000100000001000000020000006D
:105D3000010000000100000002000000010000005E
:105D4000010000000200000001000000010000004E
:105D5000020000000100000001000000020000003D
:105D6000010000000100000002000000010000002E
:105D7000010000000200000001000000010000001E
:105D8000020000000100000001000000020000000D
:105D900001000000010000000200000001000000FE
:105DA00001000000020000000100000001000000EE
:105DB00002000000010000000100000002000000DD
:105DC00001000000010000000200000001000000CE
:105DD00001000000020000000100000001000000BE
:105DE00002000000010000000100000002000000AD
:105DF000010000000100000002000000010000009E
:105E0000010000000200000001000000010000008D
:105E1000020000000100000001000000020000007C
:105E2000010000000100000002000000010000006D
:105E3000010000000200000001000000010000005D
:105E4000020000000100000001000000020000004C
:105E5000010000000100000002000000010000003D
:105E6000010000000200000001000000010000002D
:105E7000020000000100000001000000020000001C
:105E8000010000000100000002000000010000000D
:105E900001000000020000000100000001000000FD
:105EA00002000000010000000100000002000000EC
:105EB00001000000010000000200000001000000DD
:105EC00001000000020000000100000001000000CD
:105ED00002000000010000000100000002000000BC
:105EE00001000000010000000200000001000000AD
:105EF000010000000200000001000000010000009D
:105F0000020000000100000001000000020000008B
:105F1000010000000100000002000000010000007C
:105F2000010000000200000001000000010000006C
:105F3000020000000100000001000000020000005B
:105F4000010000000100000002000000010000004C
:105F5000010000000200000001000000010000003C
:105F6000020000000100000001000000020000002B
:105F7000010000000100000002000000010000001C
:105F8000010000000200000001000000010000000C
:105F900002000000010000000100000002000000FB
:105FA00001000000010000000200000001000000EC
:105FB00001000000020000000100000001000000DC
:105FC00002000000010000000100000002000000CB
:105FD00001000000010000000200000001000000BC
:105FE00001000000020000000100000001000000AC
:105FF000020000000100000001000000020000009B
:10600000010000000100000002000000010000008B
:10601000010000000200000001000000010000007B
:10602000020000000100000001000000020000006A
:10603000010000000100000002000000010000005B
:10604000010000000200000001000000010000004B
:10605000020000000100000001000000020000003A
:10606000010000000100000002000000010000002B
:10607000010000000200000001000000010000001B
:10608000020000000100000001000000020000000A
:1060900001000000010000000200000001000000FB
:1060A00001000000020000000100000001000000EB
:1060B00002000000010000000100000002000000DA
:1060C00001000000010000000200000001000000CB
:1060D00001000000020000000100000001000000BB
:1060E00002000000010000000100000002000000AA
:1060F000010000000100000002000000010000009B
:10610000010000000200000001000000010000008A
:106110000200000001000000010000000200000079
:10612000010000000100000002000000010000006A
:10613000010000000200000001000000010000005A
:106140000200000001000000010000000200000049
:10615000010000000100000002000000010000003A
:10616000010000000200000001000000010000002A
:106170000200000001000000010000000200000019
:10618000010000000100000002000000010000000A
:1061900001000000020000000100000001000000FA
:1061A00002000000010000000100000002000000E9
:1061B00001000000010000000200000001000000DA
:1061C00001000000020000000100000001000000CA
:1061D00002000000010000000100000002000000B9
:1061E00001000000010000000200000001000000AA
:1061F000010000000200000001000000010000009A
:106200000200000001000000010000000200000088
:106210000100000001000000020000000100000079
:106220000100000002000000010000000100000069
:106230000200000001000000010000000200000058
:106240000100000001000000020000000100000049
:106250000100000002000000010000000100000039
:106260000200000001000000010000000200000028
:106270000100000001000000020000000100000019
:106280000100000002000000010000000100000009
:1062900002000000010000000100000002000000F8
:1062A00001000000010000000200000001000000E9
:1062B00001000000020000000100000001000000D9
:1062C00002000000010000000100000002000000C8
:1062D00001000000010000000200000001000000B9
:1062E00001000000020000000100000001000000A9
:1062F0000200000001000000010000000200000098
:106300000100000001000000020000000100000088
:106310000100000002000000010000000100000078
:106320000200000001000000010000000200000067
:106330000100000001000000020000000100000058
:106340000100000002000000010000000100000048
:106350000200000001000000010000000200000037
:106360000100000001000000020000000100000028
:106370000100000002000000010000000100000018
:106380000200000001000000010000000200000007
:1063900001000000010000000200000001000000F8
:1063A00001000000020000000100000001000000E8
:1063B00002000000010000000100000002000000D7
:1063C00001000000010000000200000001000000C8
:1063D00001000000020000000100000001000000B8
:1063E00002000000010000000100000002000000A7
:1063F0000100000001000000020000000100000098
:106400000100000002000000010000000100000087
:106410000200000001000000010000000200000076
:106420000100000001000000020000000100000067
:106430000100000002000000010000000100000057
:106440000200000001000000010000000200000046
:106450000100000001000000020000000100000037
:106460000100000002000000010000000100000027
:106470000200000001000000010000000200000016
:106480000100000001000000020000000100000007
:1064900001000000020000000100000001000000F7
:1064A00002000000010000000100000002000000E6
:1064B00001000000010000000200000001000000D7
:1064C00001000000020000000100000001000000C7
:1064D00002000000010000000100000002000000B6
:1064E00001000000010000000200000001000000A7
:1064F0000100000002000000010000000100000097
:106500000200000001000000010000000200000085
:106510000100000001000000020000000100000076
:106520000100000002000000010000000100000066
:106530000200000001000000010000000200000055
:106540000100000001000000020000000100000046
:106550000100000002000000010000000100000036
:106560000200000001000000010000000200000025
:106570000100000001000000020000000100000016
:106580000100000002000000010000000100000006
:1065900002000000010000000100000002000000F5
:1065A00001000000010000000200000001000000E6
:1065B00001000000020000000100000001000000D6
:1065C00002000000010000000100000002000000C5
:1065D00001000000010000000200000001000000B6
:1065E00001000000020000000100000001000000A6
:1065F0000200000001000000010000000200000095
:106600000100000001000000020000000100000085
:106610000100000002000000010000000100000075
:106620000200000001000000010000000200000064
:106630000100000001000000020000000100000055
:106640000100000002000000010000000100000045
:106650000200000001000000010000000200000034
:106660000100000001000000020000000100000025
:106670000100000002000000010000000100000015
:106680000200000001000000010000000200000004
:1066900001000000010000000200000001000000F5
:1066A00001000000020000000100000001000000E5
:1066B00002000000010000000100000002000000D4
:1066C00001000000010000000200000001000000C5
:1066D00001000000020000000100000001000000B5
:1066E00002000000010000000100000002000000A4
:1066F0000100000001000000020000000100000095
:106700000100000002000000010000000100000084
:106710000200000001000000010000000200000073
:106720000100000001000000020000000100000064
:106730000100000002000000010000000100000054
:106740000200000001000000010000000200000043
:106750000100000001000000020000000100000034
:106760000100000002000000010000000100000024
:106770000200000001000000010000000200000013
:106780000100000001000000020000000100000004
:1067900001000000020000000100000001000000F4
:1067A00002000000010000000100000002000000E3
:1067B00001000000010000000200000001000000D4
:1067C00001000000020000000100000001000000C4
:1067D00002000000010000000100000002000000B3
:1067E00001000000010000000200000001000000A4
:1067F0000100000002000000010000000100000094
:106800000200000001000000010000000200000082
:106810000100000001000000020000000100000073
:106820000100000002000000010000000100000063
:106830000200000001000000010000000200000052
:106840000100000001000000020000000100000043
:106850000100000002000000010000000100000033
:106860000200000001000000010000000200000022
:106870000100000001000000020000000100000013
:106880000100000002000000010000000100000003
:1068900002000000010000000100000002000000F2
:1068A00001000000010000000200000001000000E3
:1068B00001000000020000000100000001000000D3
:1068C00002000000010000000100000002000000C2
:1068D00001000000010000000200000001000000B3
:1068E00001000000020000000100000001000000A3
:1068F0000200000001000000010000000200000092
:106900000100000001000000020000000100000082
:106910000100000002000000010000000100000072
:106920000200000001000000010000000200000061
:106930000100000001000000020000000100000052
:106940000100000002000000010000000100000042
:106950000200000001000000010000000200000031
:106960000100000001000000020000000100000022
:106970000100000002000000010000000100000012
:106980000200000001000000010000000200000001
:1069900001000000010000000200000001000000F2
:1069A00001000000020000000100000001000000E2
:1069B00002000000010000000100000002000000D1
:1069C00001000000010000000200000001000000C2
:1069D00001000000020000000100000001000000B2
:1069E00002000000010000000100000002000000A1
:1069F0000100000001000000020000000100000092
:106A00000100000002000000010000000100000081
:106A10000200000001000000010000000200000070
:106A20000100000001000000020000000100000061
:106A30000100000002000000010000000100000051
:106A40000200000001000000010000000200000040
:106A50000100000001000000020000000100000031
:106A60000100000002000000010000000100000021
:106A70000200000001000000010000000200000010
:106A80000100000001000000020000000100000001
:106A900001000000020000000100000001000000F1
:106AA00002000000010000000100000002000000E0
:106AB00001000000010000000200000001000000D1
:106AC00001000000020000000100000001000000C1
:106AD00002000000010000000100000002000000B0
:106AE00001000000010000000200000001000000A1
:106AF0000100000002000000010000000100000091
:106B0000020000000100000001000000020000007F
:106B10000100000001000000020000000100000070
:106B20000100000002000000010000000100000060
:106B3000020000000100000001000000020000004F
:106B40000100000001000000020000000100000040
:106B50000100000002000000010000000100000030
:106B6000020000000100000001000000020000001F
:106B70000100000001000000020000000100000010
:106B80000100000002000000010000000100000000
:106B900002000000010000000100000002000000EF
:106BA00001000000010000000200000001000000E0
:106BB00001000000020000000100000001000000D0
:106BC00002000000010000000100000002000000BF
:106BD00001000000010000000200000001000000B0
:106BE00001000000020000000100000001000000A0
:106BF000020000000100000001000000020000008F
:106C0000010000000100000002000000010000007F
:106C1000010000000200000001000000010000006F
:106C2000020000000100000001000000020000005E
:106C3000010000000100000002000000010000004F
:106C4000010000000200000001000000010000003F
:106C5000020000000100000001000000020000002E
:106C6000010000000100000002000000010000001F
:106C7000010000000200000001000000010000000F
:106C800002000000010000000100000002000000FE
:106C900001000000010000000200000001000000EF
:106CA00001000000020000000100000001000000DF
:106CB00002000000010000000100000002000000CE
:106CC00001000000010000000200000001000000BF
:106CD00001000000020000000100000001000000AF
:106CE000020000000100000001000000020000009E
:106CF000010000000100000002000000010000008F
:106D0000010000000200000001000000010000007E
:106D1000020000000100000001000000020000006D
:106D2000010000000100000002000000010000005E
:106D3000010000000200000001000000010000004E
:106D4000020000000100000001000000020000003D
:106D5000010000000100000002000000010000002E
:106D6000010000000200000001000000010000001E
:106D7000020000000100000001000000020000000D
:106D800001000000010000000200000001000000FE
:106D900001000000020000000100000001000000EE
:106DA00002000000010000000100000002000000DD
:106DB00001000000010000000200000001000000CE
:106DC00001000000020000000100000001000000BE
:106DD00002000000010000000100000002000000AD
:106DE000010000000100000002000000010000009E
:106DF000010000000200000001000000010000008E
:106E0000020000000100000001000000020000007C
:106E1000010000000100000002000000010000006D
:106E2000010000000200000001000000010000005D
:106E3000020000000100000001000000020000004C
:106E4000010000000100000002000000010000003D
:106E5000010000000200000001000000010000002D
:106E6000020000000100000001000000020000001C
:106E7000010000000100000002000000010000000D
:106E800001000000020000000100000001000000FD
:106E900002000000010000000100000002000000EC
:106EA00001000000010000000200000001000000DD
:106EB00001000000020000000100000001000000CD
:106EC00002000000010000000100000002000000BC
:106ED00001000000010000000200000001000000AD
:106EE000010000000200000001000000010000009D
:106EF000020000000100000001000000020000008C
:106F0000010000000100000002000000010000007C
:106F1000010000000200000001000000010000006C
:106F2000020000000100000001000000020000005B
:106F3000010000000100000002000000010000004C
:106F4000010000000200000001000000010000003C
:106F5000020000000100000001000000020000002B
:106F6000010000000100000002000000010000001C
:106F7000010000000200000001000000010000000C
:106F800002000000010000000100000002000000FB
:106F900001000000010000000200000001000000EC
:106FA00001000000020000000100000001000000DC
:106FB00002000000010000000100000002000000CB
:106FC00001000000010000000200000001000000BC
:106FD00001000000020000000100000001000000AC
:106FE000020000000100000001000000020000009B
:106FF000010000000100000002000000010000008C
:10700000010000000200000001000000010000007B
:10701000020000000100000001000000020000006A
:10702000010000000100000002000000010000005B
:10703000010000000200000001000000010000004B
:10704000020000000100000001000000020000003A
:10705000010000000100000002000000010000002B
:10706000010000000200000001000000010000001B
:10707000020000000100000001000000020000000A
:1070800001000000010000000200000001000000FB
:1070900001000000020000000100000001000000EB
:1070A00002000000010000000100000002000000DA
:1070B00001000000010000000200000001000000CB
:1070C00001000000020000000100000001000000BB
:1070D00002000000010000000100000002000000AA
:1070E000010000000100000002000000010000009B
:1070F000010000000200000001000000010000008B
:107100000200000001000000010000000200000079
:10711000010000000100000002000000010000006A
:10712000010000000200000001000000010000005A
:107130000200000001000000010000000200000049
:10714000010000000100000002000000010000003A
:10715000010000000200000001000000010000002A
:107160000200000001000000010000000200000019
:10717000010000000100000002000000010000000A
:1071800001000000020000000100000001000000FA
:1071900002000000010000000100000002000000E9
:1071A00001000000010000000200000001000000DA
:1071B00001000000020000000100000001000000CA
:1071C00002000000010000000100000002000000B9
:1071D00001000000010000000200000001000000AA
:1071E000010000000200000001000000010000009A
:1071F0000200000001000000010000000200000089
:107200000100000001000000020000000100000079
:107210000100000002000000010000000100000069
:107220000200000001000000010000000200000058
:107230000100000001000000020000000100000049
:107240000100000002000000010000000100000039
:107250000200000001000000010000000200000028
:107260000100000001000000020000000100000019
:107270000100000002000000010000000100000009
:1072800002000000010000000100000002000000F8
:1072900001000000010000000200000001000000E9
:1072A00001000000020000000100000001000000D9
:1072B00002000000010000000100000002000000C8
:1072C00001000000010000000200000001000000B9
:1072D00001000000020000000100000001000000A9
:1072E0000200000001000000010000000200000098
:1072F0000100000001000000020000000100000089
:107300000100000002000000010000000100000078
:107310000200000001000000010000000200000067
:107320000100000001000000020000000100000058
:107330000100000002000000010000000100000048
:107340000200000001000000010000000200000037
:107350000100000001000000020000000100000028
:107360000100000002000000010000000100000018
:107370000200000001000000010000000200000007
:1073800001000000010000000200000001000000F8
:1073900001000000020000000100000001000000E8
:1073A00002000000010000000100000002000000D7
:1073B00001000000010000000200000001000000C8
:1073C00001000000020000000100000001000000B8
:1073D00002000000010000000100000002000000A7
:1073E0000100000001000000020000000100000098
:1073F0000100000002000000010000000100000088
:107400000200000001000000010000000200000076
:107410000100000001000000020000000100000067
:107420000100000002000000010000000100000057
:107430000200000001000000010000000200000046
:107440000100000001000000020000000100000037
:107450000100000002000000010000000100000027
:107460000200000001000000010000000200000016
:107470000100000001000000020000000100000007
:1074800001000000020000000100000001000000F7
:1074900002000000010000000100000002000000E6
:1074A00001000000010000000200000001000000D7
:1074B00001000000020000000100000001000000C7
:1074C00002000000010000000100000002000000B6
:1074D00001000000010000000200000001000000A7
:1074E0000100000002000000010000000100000097
:1074F0000200000001000000010000000200000086
:107500000100000001000000020000000100000076
:107510000100000002000000010000000100000066
:107520000200000001000000010000000200000055
:107530000100000001000000020000000100000046
:107540000100000002000000010000000100000036
:107550000200000001000000010000000200000025
:107560000100000001000000020000000100000016
:107570000100000002000000010000000100000006
:1075800002000000010000000100000002000000F5
:1075900001000000010000000200000001000000E6
:1075A00001000000020000000100000001000000D6
:1075B00002000000010000000100000002000000C5
:1075C00001000000010000000200000001000000B6
:1075D00001000000020000000100000001000000A6
:1075E0000200000001000000010000000200000095
:1075F0000100000001000000020000000100000086
:107600000100000002000000010000000100000075
:107610000200000001000000010000000200000064
:107620000100000001000000020000000100000055
:107630000100000002000000010000000100000045
:107640000200000001000000010000000200000034
:107650000100000001000000020000000100000025
:107660000100000002000000010000000100000015
:107670000200000001000000010000000200000004
:1076800001000000010000000200000001000000F5
:1076900001000000020000000100000001000000E5
:1076A00002000000010000000100000002000000D4
:1076B00001000000010000000200000001000000C5
:1076C00001000000020000000100000001000000B5
:1076D00002000000010000000100000002000000A4
:1076E0000100000001000000020000000100000095
:1076F0000100000002000000010000000100000085
:107700000200000001000000010000000200000073
:107710000100000001000000020000000100000064
:107720000100000002000000010000000100000054
:107730000200000001000000010000000200000043
:107740000100000001000000020000000100000034
:107750000100000002000000010000000100000024
:107760000200000001000000010000000200000013
:107770000100000001000000020000000100000004
:1077800001000000020000000100000001000000F4
:1077900002000000010000000100000002000000E3
:1077A00001000000010000000200000001000000D4
:1077B00001000000020000000100000001000000C4
:1077C00002000000010000000100000002000000B3
:1077D00001000000010000000200000001000000A4
:1077E0000100000002000000010000000100000094
:1077F0000200000001000000010000000200000083
:107800000100000001000000020000000100000073
:107810000100000002000000010000000100000063
:107820000200000001000000010000000200000052
:107830000100000001000000020000000100000043
:107840000100000002000000010000000100000033
:107850000200000001000000010000000200000022
:107860000100000001000000020000000100000013
:107870000100000002000000010000000100000003
:1078800002000000010000000100000002000000F2
:1078900001000000010000000200000001000000E3
:1078A00001000000020000000100000001000000D3
:1078B00002000000010000000100000002000000C2
:1078C00001000000010000000200000001000000B3
:1078D00001000000020000000100000001000000A3
:1078E0000200000001000000010000000200000092
:1078F0000100000001000000020000000100000083
:107900000100000002000000010000000100000072
:107910000200000001000000010000000200000061
:107920000100000001000000020000000100000052
:107930000100000002000000010000000100000042
:107940000200000001000000010000000200000031
:107950000100000001000000020000000100000022
:107960000100000002000000010000000100000012
:107970000200000001000000010000000200000001
:1079800001000000010000000200000001000000F2
:1079900001000000020000000100000001000000E2
:1079A00002000000010000000100000002000000D1
:1079B00001000000010000000200000001000000C2
:1079C00001000000020000000100000001000000B2
:1079D00002000000010000000100000002000000A1
:1079E0000100000001000000020000000100000092
:1079F0000100000002000000010000000100000082
:107A00000200000001000000010000000200000070
:107A10000100000001000000020000000100000061
:107A20000100000002000000010000000100000051
:107A30000200000001000000010000000200000040
:107A40000100000001000000020000000100000031
:107A50000100000002000000010000000100000021
:107A60000200000001000000010000000200000010
:107A70000100000001000000020000000100000001
:107A800001000000020000000100000001000000F1
:107A900002000000010000000100000002000000E0
:107AA00001000000010000000200000001000000D1
:107AB00001000000020000000100000001000000C1
:107AC00002000000010000000100000002000000B0
:107AD00001000000010000000200000001000000A1
:107AE0000100000002000000010000000100000091
:107AF0000200000001000000010000000200000080
:107B00000100000001000000020000000100000070
:107B10000100000002000000010000000100000060
:107B2000020000000100000001000000020000004F
:107B30000100000001000000020000000100000040
:107B40000100000002000000010000000100000030
:107B5000020000000100000001000000020000001F
:107B60000100000001000000020000000100000010
:107B70000100000002000000010000000100000000
:107B800002000000010000000100000002000000EF
:107B900001000000010000000200000001000000E0
:107BA00001000000020000000100000001000000D0
:107BB00002000000010000000100000002000000BF
:107BC00001000000010000000200000001000000B0
:107BD00001000000020000000100000001000000A0
:107BE000020000000100000001000000020000008F
:107BF0000100000001000000020000000100000080
:107C0000010000000200000001000000010000006F
:107C1000020000000100000001000000020000005E
:107C2000010000000100000002000000010000004F
:107C3000010000000200000001000000010000003F
:107C4000020000000100000001000000020000002E
:107C5000010000000100000002000000010000001F
:107C6000010000000200000001000000010000000F
:107C700002000000010000000100000002000000FE
:107C800001000000010000000200000001000000EF
:107C900001000000020000000100000001000000DF
:107CA00002000000010000000100000002000000CE
:107CB00001000000010000000200000001000000BF
:107CC00001000000020000000100000001000000AF
:107CD000020000000100000001000000020000009E
:107CE000010000000100000002000000010000008F
:107CF000010000000200000001000000010000007F
:107D0000020000000100000001000000020000006D
:107D1000010000000100000002000000010000005E
:107D2000010000000200000001000000010000004E
:107D3000020000000100000001000000020000003D
:107D4000010000000100000002000000010000002E
:107D5000010000000200000001000000010000001E
:107D6000020000000100000001000000020000000D
:107D700001000000010000000200000001000000FE
:107D800001000000020000000100000001000000EE
:107D900002000000010000000100000002000000DD
:107DA00001000000010000000200000001000000CE
:107DB00001000000020000000100000001000000BE
:107DC00002000000010000000100000002000000AD
:107DD000010000000100000002000000010000009E
:107DE000010000000200000001000000010000008E
:107DF000020000000100000001000000020000007D
:107E0000010000000100000002000000010000006D
:107E1000010000000200000001000000010000005D
:107E2000020000000100000001000000020000004C
:107E3000010000000100000002000000010000003D
:107E4000010000000200000001000000010000002D
:107E5000020000000100000001000000020000001C
:107E6000010000000100000002000000010000000D
:107E700001000000020000000100000001000000FD
:107E800002000000010000000100000002000000EC
:107E900001000000010000000200000001000000DD
:107EA00001000000020000000100000001000000CD
:107EB00002000000010000000100000002000000BC
:107EC00001000000010000000200000001000000AD
:107ED000010000000200000001000000010000009D
:107EE000020000000100000001000000020000008C
:107EF000010000000100000002000000010000007D
:107F0000010000000200000001000000010000006C
:107F1000020000000100000001000000020000005B
:107F2000010000000100000002000000010000004C
:107F3000010000000200000001000000010000003C
:107F4000020000000100000001000000020000002B
:107F5000010000000100000002000000010000001C
:107F6000010000000200000001000000010000000C
:107F700002000000010000000100000002000000FB
:107F800001000000010000000200000001000000EC
:107F900001000000020000000100000001000000DC
:107FA00002000000010000000100000002000000CB
:107FB00001000000010000000200000001000000BC
:107FC00001000000020000000100000001000000AC
:107FD000020000000100000001000000020000009B
:107FE000010000000100000002000000010000008C
:107FF000010000000200000001000000010000007C
:10800000020000000100000001000000020000006A
:10801000010000000100000002000000010000005B
:10802000010000000200000001000000010000004B
:10803000020000000100000001000000020000003A
:10804000010000000100000002000000010000002B
:10805000010000000200000001000000010000001B
:10806000020000000100000001000000020000000A
:1080700001000000010000000200000001000000FB
:1080800001000000020000000100000001000000EB
:1080900002000000010000000100000002000000DA
:1080A00001000000010000000200000001000000CB
:1080B00001000000020000000100000001000000BB
:1080C00002000000010000000100000002000000AA
:1080D000010000000100000002000000010000009B
:1080E000010000000200000001000000010000008B
:1080F000020000000100000001000000020000007A
:10810000010000000100000002000000010000006A
:10811000010000000200000001000000010000005A
:108120000200000001000000010000000200000049
:10813000010000000100000002000000010000003A
:10814000010000000200000001000000010000002A
:108150000200000001000000010000000200000019
:10816000010000000100000002000000010000000A
:1081700001000000020000000100000001000000FA
:1081800002000000010000000100000002000000E9
:1081900001000000010000000200000001000000DA
:1081A00001000000020000000100000001000000CA
:1081B00002000000010000000100000002000000B9
:1081C00001000000010000000200000001000000AA
:1081D000010000000200000001000000010000009A
:1081E0000200000001000000010000000200000089
:1081F000010000000100000002000000010000007A
:108200000100000002000000010000000100000069
:108210000200000001000000010000000200000058
:108220000100000001000000020000000100000049
:108230000100000002000000010000000100000039
:108240000200000001000000010000000200000028
:108250000100000001000000020000000100000019
:108260000100000002000000010000000100000009
:1082700002000000010000000100000002000000F8
:1082800001000000010000000200000001000000E9
:1082900001000000020000000100000001000000D9
:1082A00002000000010000000100000002000000C8
:1082B00001000000010000000200000001000000B9
:1082C00001000000020000000100000001000000A9
:1082D0000200000001000000010000000200000098
:1082E0000100000001000000020000000100000089
:1082F0000100000002000000010000000100000079
:108300000200000001000000010000000200000067
:108310000100000001000000020000000100000058
:108320000100000002000000010000000100000048
:108330000200000001000000010000000200000037
:108340000100000001000000020000000100000028
:108350000100000002000000010000000100000018
:108360000200000001000000010000000200000007
:1083700001000000010000000200000001000000F8
:1083800001000000020000000100000001000000E8
:1083900002000000010000000100000002000000D7
:1083A00001000000010000000200000001000000C8
:1083B00001000000020000000100000001000000B8
:1083C00002000000010000000100000002000000A7
:1083D0000100000001000000020000000100000098
:1083E0000100000002000000010000000100000088
:1083F0000200000001000000010000000200000077
:108400000100000001000000020000000100000067
:108410000100000002000000010000000100000057
:108420000200000001000000010000000200000046
:108430000100000001000000020000000100000037
:108440000100000002000000010000000100000027
:108450000200000001000000010000000200000016
:108460000100000001000000020000000100000007
:1084700001000000020000000100000001000000F7
:1084800002000000010000000100000002000000E6
:1084900001000000010000000200000001000000D7
:1084A00001000000020000000100000001000000C7
:1084B00002000000010000000100000002000000B6
:1084C00001000000010000000200000001000000A7
:1084D0000100000002000000010000000100000097
:1084E0000200000001000000010000000200000086
:1084F0000100000001000000020000000100000077
:108500000100000002000000010000000100000066
:108510000200000001000000010000000200000055
:108520000100000001000000020000000100000046
:108530000100000002000000010000000100000036
:108540000200000001000000010000000200000025
:108550000100000001000000020000000100000016
:108560000100000002000000010000000100000006
:1085700002000000010000000100000002000000F5
:1085800001000000010000000200000001000000E6
:1085900001000000020000000100000001000000D6
:1085A00002000000010000000100000002000000C5
:1085B00001000000010000000200000001000000B6
:1085C00001000000020000000100000001000000A6
:1085D0000200000001000000010000000200000095
:1085E0000100000001000000020000000100000086
:1085F0000100000002000000010000000100000076
:108600000200000001000000010000000200000064
:108610000100000001000000020000000100000055
:108620000100000002000000010000000100000045
:108630000200000001000000010000000200000034
:108640000100000001000000020000000100000025
:108650000100000002000000010000000100000015
:108660000200000001000000010000000200000004
:1086700001000000010000000200000001000000F5
:1086800001000000020000000100000001000000E5
:1086900002000000010000000100000002000000D4
:1086A00001000000010000000200000001000000C5
:1086B00001000000020000000100000001000000B5
:1086C00002000000010000000100000002000000A4
:1086D0000100000001000000020000000100000095
:1086E0000100000002000000010000000000000086
:1086F000000000000000000000000000000000007A
:108700000000000000000000000000000000000069
:108710000000000000000000000000000000000059
:108720000000000000000000000000000000000049
:108CF000010000000200000001000000010000006F
:108D0000020000000100000001000000020000005D
:108D1000010000000100000002000000010000004E
:108D2000010000000200000001000000010000003E
:108D3000020000000100000001000000020000002D
:108D4000010000000100000002000000010000001E
:108D5000010000000200000001000000010000000E
:108D600002000000010000000100000002000000FD
:108D700001000000010000000200000001000000EE
:108D800001000000020000000100000001000000DE
:108D900002000000010000000100000002000000CD
:108DA00001000000010000000200000001000000BE
:108DB00001000000020000000100000001000000AE
:108DC000020000000100000001000000020000009D
:108DD000010000000100000002000000010000008E
:108DE000010000000200000001000000010000007E
:108DF000020000000100000001000000020000006D
:108E0000010000000100000002000000010000005D
:108E1000010000000200000001000000010000004D
:108E2000020000000100000001000000020000003C
:108E3000010000000100000002000000010000002D
:108E4000010000000200000001000000010000001D
:108E5000020000000100000001000000020000000C
:108E600001000000010000000200000001000000FD
:108E700001000000020000000100000001000000ED
:108E800002000000010000000100000002000000DC
:108E900001000000010000000200000001000000CD
:108EA00001000000020000000100000001000000BD
:108EB00002000000010000000100000002000000AC
:108EC000010000000100000002000000010000009D
:108ED000010000000200000001000000010000008D
:108EE000020000000100000001000000020000007C
:108EF000010000000100000002000000010000006D
:108F0000010000000200000001000000010000005C
:108F1000020000000100000001000000020000004B
:108F2000010000000100000002000000010000003C
:108F3000010000000200000001000000010000002C
:108F4000020000000100000001000000020000001B
:108F5000010000000100000002000000010000000C
:108F600001000000020000000100000001000000FC
:108F700002000000010000000100000002000000EB
:108F800001000000010000000200000001000000DC
:108F900001000000020000000100000001000000CC
:108FA00002000000010000000100000002000000BB
:108FB00001000000010000000200000001000000AC
:108FC000010000000200000001000000010000009C
:108FD000020000000100000001000000020000008B
:108FE000010000000100000002000000010000007C
:108FF000010000000200000001000000010000006C
:10900000020000000100000001000000020000005A
:10901000010000000100000002000000010000004B
:10902000010000000200000001000000010000003B
:10903000020000000100000001000000020000002A
:10904000010000000100000002000000010000001B
:10905000010000000200000001000000010000000B
:1090600002000000010000000100000002000000FA
:1090700001000000010000000200000001000000EB
:1090800001000000020000000100000001000000DB
:1090900002000000010000000100000002000000CA
:1090A00001000000010000000200000001000000BB
:1090B00001000000020000000100000001000000AB
:1090C000020000000100000001000000020000009A
:1090D000010000000100000002000000010000008B
:1090E000010000000200000001000000010000007B
:1090F000020000000100000001000000020000006A
:10910000010000000100000002000000010000005A
:10911000010000000200000001000000010000004A
:109120000200000001000000010000000200000039
:10913000010000000100000002000000010000002A
:10914000010000000200000001000000010000001A
:109150000200000001000000010000000200000009
:1091600001000000010000000200000001000000FA
:1091700001000000020000000100000001000000EA
:1091800002000000010000000100000002000000D9
:1091900001000000010000000200000001000000CA
:1091A00001000000020000000100000001000000BA
:1091B00002000000010000000100000002000000A9
:1091C000010000000100000002000000010000009A
:1091D000010000000200000001000000010000008A
:1091E0000200000001000000010000000200000079
:1091F000010000000100000002000000010000006A
:109200000100000002000000010000000100000059
:109210000200000001000000010000000200000048
:109220000100000001000000020000000100000039
:109230000100000002000000010000000100000029
:109240000200000001000000010000000200000018
:109250000100000001000000020000000100000009
:1092600001000000020000000100000001000000F9
:1092700002000000010000000100000002000000E8
:1092800001000000010000000200000001000000D9
:1092900001000000020000000100000001000000C9
:1092A00002000000010000000100000002000000B8
:1092B00001000000010000000200000001000000A9
:1092C0000100000002000000010000000100000099
:1092D0000200000001000000010000000200000088
:1092E0000100000001000000020000000100000079
:1092F0000100000002000000010000000100000069
:109300000200000001000000010000000200000057
:109310000100000001000000020000000100000048
:109320000100000002000000010000000100000038
:109330000200000001000000010000000200000027
:109340000100000001000000020000000100000018
:109350000100000002000000010000000100000008
:1093600002000000010000000100000002000000F7
:1093700001000000010000000200000001000000E8
:1093800001000000020000000100000001000000D8
:1093900002000000010000000100000002000000C7
:1093A00001000000010000000200000001000000B8
:1093B00001000000020000000100000001000000A8
:1093C0000200000001000000010000000200000097
:1093D0000100000001000000020000000100000088
:1093E0000100000002000000010000000100000078
:1093F0000200000001000000010000000200000067
:109400000100000001000000020000000100000057
:109410000100000002000000010000000100000047
:109420000200000001000000010000000200000036
:109430000100000001000000020000000100000027
:109440000100000002000000010000000100000017
:109450000200000001000000010000000200000006
:1094600001000000010000000200000001000000F7
:1094700001000000020000000100000001000000E7
:1094800002000000010000000100000002000000D6
:1094900001000000010000000200000001000000C7
:1094A00001000000020000000100000001000000B7
:1094B00002000000010000000100000002000000A6
:1094C0000100000001000000020000000100000097
:1094D0000100000002000000010000000100000087
:1094E0000200000001000000010000000200000076
:1094F0000100000001000000020000000100000067
:109500000100000002000000010000000100000056
:109510000200000001000000010000000200000045
:109520000100000001000000020000000100000036
:109530000100000002000000010000000100000026
:109540000200000001000000010000000200000015
:109550000100000001000000020000000100000006
:1095600001000000020000000100000001000000F6
:1095700002000000010000000100000002000000E5
:1095800001000000010000000200000001000000D6
:1095900001000000020000000100000001000000C6
:1095A00002000000010000000100000002000000B5
:1095B00001000000010000000200000001000000A6
:1095C0000100000002000000010000000100000096
:1095D0000200000001000000010000000200000085
:1095E0000100000001000000020000000100000076
:1095F0000100000002000000010000000100000066
:109600000200000001000000010000000200000054
:109610000100000001000000020000000100000045
:109620000100000002000000010000000100000035
:109630000200000001000000010000000200000024
:109640000100000001000000020000000100000015
:109650000100000002000000010000000100000005
:1096600002000000010000000100000002000000F4
:1096700001000000010000000200000001000000E5
:1096800001000000020000000100000001000000D5
:1096900002000000010000000100000002000000C4
:1096A00001000000010000000200000001000000B5
:1096B00001000000020000000100000001000000A5
:1096C0000200000001000000010000000200000094
:1096D0000100000001000000020000000100000085
:1096E0000100000002000000010000000100000075
:1096F0000200000001000000010000000200000064
:109700000100000001000000020000000100000054
:109710000100000002000000010000000100000044
:109720000200000001000000010000000200000033
:109730000100000001000000020000000100000024
:109740000100000002000000010000000100000014
:109750000200000001000000010000000200000003
:1097600001000000010000000200000001000000F4
:1097700001000000020000000100000001000000E4
:1097800002000000010000000100000002000000D3
:1097900001000000010000000200000001000000C4
:1097A00001000000020000000100000001000000B4
:1097B00002000000010000000100000002000000A3
:1097C0000100000001000000020000000100000094
:1097D0000100000002000000010000000100000084
:1097E0000200000001000000010000000200000073
:1097F0000100000001000000020000000100000064
:109800000100000002000000010000000100000053
:109810000200000001000000010000000200000042
:109820000100000001000000020000000100000033
:109830000100000002000000010000000100000023
:109840000200000001000000010000000200000012
:109850000100000001000000020000000100000003
:1098600001000000020000000100000001000000F3
:1098700002000000010000000100000002000000E2
:1098800001000000010000000200000001000000D3
:1098900001000000020000000100000001000000C3
:1098A00002000000010000000100000002000000B2
:1098B00001000000010000000200000001000000A3
:1098C0000100000002000000010000000100000093
:1098D0000200000001000000010000000200000082
:1098E0000100000001000000020000000100000073
:1098F0000100000002000000010000000100000063
:109900000200000001000000010000000200000051
:109910000100000001000000020000000100000042
:109920000100000002000000010000000100000032
:109930000200000001000000010000000200000021
:109940000100000001000000020000000100000012
:109950000100000002000000010000000100000002
:1099600002000000010000000100000002000000F1
:1099700001000000010000000200000001000000E2
:1099800001000000020000000100000001000000D2
:1099900002000000010000000100000002000000C1
:1099A00001000000010000000200000001000000B2
:1099B00001000000020000000100000001000000A2
:1099C0000200000001000000010000000200000091
:1099D0000100000001000000020000000100000082
:1099E0000100000002000000010000000100000072
:1099F0000200000001000000010000000200000061
:109A00000100000001000000020000000100000051
:109A10000100000002000000010000000100000041
:109A20000200000001000000010000000200000030
:109A30000100000001000000020000000100000021
:109A40000100000002000000010000000100000011
:109A50000200000001000000010000000200000000
:109A600001000000010000000200000001000000F1
:109A700001000000020000000100000001000000E1
:109A800002000000010000000100000002000000D0
:109A900001000000010000000200000001000000C1
:109AA00001000000020000000100000001000000B1
:109AB00002000000010000000100000002000000A0
:109AC0000100000001000000020000000100000091
:109AD0000100000002000000010000000100000081
:109AE0000200000001000000010000000200000070
:109AF0000100000001000000020000000100000061
:109B00000100000002000000010000000100000050
:109B1000020000000100000001000000020000003F
:109B20000100000001000000020000000100000030
:109B30000100000002000000010000000100000020
:109B4000020000000100000001000000020000000F
:109B50000100000001000000020000000100000000
:109B600001000000020000000100000001000000F0
:109B700002000000010000000100000002000000DF
:109B800001000000010000000200000001000000D0
:109B900001000000020000000100000001000000C0
:109BA00002000000010000000100000002000000AF
:109BB00001000000010000000200000001000000A0
:109BC0000100000002000000010000000100000090
:109BD000020000000100000001000000020000007F
:109BE0000100000001000000020000000100000070
:109BF0000100000002000000010000000100000060
:109C0000020000000100000001000000020000004E
:109C1000010000000100000002000000010000003F
:109C2000010000000200000001000000010000002F
:109C3000020000000100000001000000020000001E
:109C4000010000000100000002000000010000000F
:109C500001000000020000000100000001000000FF
:109C600002000000010000000100000002000000EE
:109C700001000000010000000200000001000000DF
:109C800001000000020000000100000001000000CF
:109C900002000000010000000100000002000000BE
:109CA00001000000010000000200000001000000AF
:109CB000010000000200000001000000010000009F
:109CC000020000000100000001000000020000008E
:109CD000010000000100000002000000010000007F
:109CE000010000000200000001000000010000006F
:109CF000020000000100000001000000020000005E
:109D0000010000000100000002000000010000004E
:109D1000010000000200000001000000010000003E
:109D2000020000000100000001000000020000002D
:109D3000010000000100000002000000010000001E
:109D4000010000000200000001000000010000000E
:109D500002000000010000000100000002000000FD
:109D600001000000010000000200000001000000EE
:109D700001000000020000000100000001000000DE
:109D800002000000010000000100000002000000CD
:109D900001000000010000000200000001000000BE
:109DA00001000000020000000100000001000000AE
:109DB000020000000100000001000000020000009D
:109DC000010000000100000002000000010000008E
:109DD000010000000200000001000000010000007E
:109DE000020000000100000001000000020000006D
:109DF000010000000100000002000000010000005E
:109E0000010000000200000001000000010000004D
:109E1000020000000100000001000000020000003C
:109E2000010000000100000002000000010000002D
:109E3000010000000200000001000000010000001D
:109E4000020000000100000001000000020000000C
:109E500001000000010000000200000001000000FD
:109E600001000000020000000100000001000000ED
:109E700002000000010000000100000002000000DC
:109E800001000000010000000200000001000000CD
:109E900001000000020000000100000001000000BD
:109EA00002000000010000000100000002000000AC
:109EB000010000000100000002000000010000009D
:109EC000010000000200000001000000010000008D
:109ED000020000000100000001000000020000007C
:109EE000010000000100000002000000010000006D
:109EF000010000000200000001000000010000005D
:109F0000020000000100000001000000020000004B
:109F1000010000000100000002000000010000003C
:109F2000010000000200000001000000010000002C
:109F3000020000000100000001000000020000001B
:109F4000010000000100000002000000010000000C
:109F500001000000020000000100000001000000FC
:109F600002000000010000000100000002000000EB
:109F700001000000010000000200000001000000DC
:109F800001000000020000000100000001000000CC
:109F900002000000010000000100000002000000BB
:109FA00001000000010000000200000001000000AC
:109FB000010000000200000001000000010000009C
:109FC000020000000100000001000000020000008B
:109FD000010000000100000002000000010000007C
:109FE000010000000200000001000000010000006C
:109FF000020000000100000001000000020000005B
:10A00000010000000100000002000000010000004B
:10A01000010000000200000001000000010000003B
:10A02000020000000100000001000000020000002A
:10A03000010000000100000002000000010000001B
:10A04000010000000200000001000000010000000B
:10A0500002000000010000000100000002000000FA
:10A0600001000000010000000200000001000000EB
:10A0700001000000020000000100000001000000DB
:10A0800002000000010000000100000002000000CA
:10A0900001000000010000000200000001000000BB
:10A0A00001000000020000000100000001000000AB
:10A0B000020000000100000001000000020000009A
:10A0C000010000000100000002000000010000008B
:10A0D000010000000200000001000000010000007B
:10A0E000020000000100000001000000020000006A
:10A0F000010000000100000002000000010000005B
:10A10000010000000200000001000000010000004A
:10A110000200000001000000010000000200000039
:10A12000010000000100000002000000010000002A
:10A13000010000000200000001000000010000001A
:10A140000200000001000000010000000200000009
:10A1500001000000010000000200000001000000FA
:10A1600001000000020000000100000001000000EA
:10A1700002000000010000000100000002000000D9
:10A1800001000000010000000200000001000000CA
:10A1900001000000020000000100000001000000BA
:10A1A00002000000010000000100000002000000A9
:10A1B000010000000100000002000000010000009A
:10A1C000010000000200000001000000010000008A
:10A1D0000200000001000000010000000200000079
:10A1E000010000000100000002000000010000006A
:10A1F000010000000200000001000000010000005A
:10A200000200000001000000010000000200000048
:10A210000100000001000000020000000100000039
:10A220000100000002000000010000000100000029
:10A230000200000001000000010000000200000018
:10A240000100000001000000020000000100000009
:10A2500001000000020000000100000001000000F9
:10A2600002000000010000000100000002000000E8
:10A2700001000000010000000200000001000000D9
:10A2800001000000020000000100000001000000C9
:10A2900002000000010000000100000002000000B8
:10A2A00001000000010000000200000001000000A9
:10A2B0000100000002000000010000000100000099
:10A2C0000200000001000000010000000200000088
:10A2D0000100000001000000020000000100000079
:10A2E0000100000002000000010000000100000069
:10A2F0000200000001000000010000000200000058
:10A300000100000001000000020000000100000048
:10A310000100000002000000010000000100000038
:10A320000200000001000000010000000200000027
:10A330000100000001000000020000000100000018
:10A340000100000002000000010000000100000008
:10A3500002000000010000000100000002000000F7
:10A3600001000000010000000200000001000000E8
:10A3700001000000020000000100000001000000D8
:10A3800002000000010000000100000002000000C7
:10A3900001000000010000000200000001000000B8
:10A3A00001000000020000000100000001000000A8
:10A3B0000200000001000000010000000200000097
:10A3C0000100000001000000020000000100000088
:10A3D0000100000002000000010000000100000078
:10A3E0000200000001000000010000000200000067
:10A3F0000100000001000000020000000100000058
:10A400000100000002000000010000000100000047
:10A410000200000001000000010000000200000036
:10A420000100000001000000020000000100000027
:10A430000100000002000000010000000100000017
:10A440000200000001000000010000000200000006
:10A4500001000000010000000200000001000000F7
:10A4600001000000020000000100000001000000E7
:10A4700002000000010000000100000002000000D6
:10A4800001000000010000000200000001000000C7
:10A4900001000000020000000100000001000000B7
:10A4A00002000000010000000100000002000000A6
:10A4B0000100000001000000020000000100000097
:10A4C0000100000002000000010000000100000087
:10A4D0000200000001000000010000000200000076
:10A4E0000100000001000000020000000100000067
:10A4F0000100000002000000010000000100000057
:10A500000200000001000000010000000200000045
:10A510000100000001000000020000000100000036
:10A520000100000002000000010000000100000026
:10A530000200000001000000010000000200000015
:10A540000100000001000000020000000100000006
:10A5500001000000020000000100000001000000F6
:10A5600002000000010000000100000002000000E5
:10A5700001000000010000000200000001000000D6
:10A5800001000000020000000100000001000000C6
:10A5900002000000010000000100000002000000B5
:10A5A00001000000010000000200000001000000A6
:10A5B0000100000002000000010000000100000096
:10A5C0000200000001000000010000000200000085
:10A5D0000100000001000000020000000100000076
:10A5E0000100000002000000010000000100000066
:10A5F0000200000001000000010000000200000055
:10A600000100000001000000020000000100000045
:10A610000100000002000000010000000100000035
:10A620000200000001000000010000000200000024
:10A630000100000001000000020000000100000015
:10A640000100000002000000010000000100000005
:10A6500002000000010000000100000002000000F4
:10A6600001000000010000000200000001000000E5
:10A6700001000000020000000100000001000000D5
:10A6800002000000010000000100000002000000C4
:10A6900001000000010000000200000001000000B5
:10A6A00001000000020000000100000001000000A5
:10A6B0000200000001000000010000000200000094
:10A6C0000100000001000000020000000100000085
:10A6D0000100000002000000010000000100000075
:10A6E0000200000001000000010000000200000064
:10A6F0000100000001000000020000000100000055
:10A700000100000002000000010000000100000044
:10A710000200000001000000010000000200000033
:10A720000100000001000000020000000100000024
:10A730000100000002000000010000000100000014
:10A740000200000001000000010000000200000003
:10A7500001000000010000000200000001000000F4
:10A7600001000000020000000100000001000000E4
:10A7700002000000010000000100000002000000D3
:10A7800001000000010000000200000001000000C4
:10A7900001000000020000000100000001000000B4
:10A7A00002000000010000000100000002000000A3
:10A7B0000100000001000000020000000100000094
:10A7C0000100000002000000010000000100000084
:10A7D0000200000001000000010000000200000073
:10A7E0000100000001000000020000000100000064
:10A7F0000100000002000000010000000100000054
:10A800000200000001000000010000000200000042
:10A810000100000001000000020000000100000033
:10A820000100000002000000010000000100000023
:10A830000200000001000000010000000200000012
:10A840000100000001000000020000000100000003
:10A8500001000000020000000100000001000000F3
:10A8600002000000010000000100000002000000E2
:10A8700001000000010000000200000001000000D3
:10A8800001000000020000000100000001000000C3
:10A8900002000000010000000100000002000000B2
:10A8A00001000000010000000200000001000000A3
:10A8B0000100000002000000010000000100000093
:10A8C0000200000001000000010000000200000082
:10A8D0000100000001000000020000000100000073
:10A8E0000100000002000000010000000100000063
:10A8F0000200000001000000010000000200000052
:10A900000100000001000000020000000100000042
:10A910000100000002000000010000000100000032
:10A920000200000001000000010000000200000021
:10A930000100000001000000020000000100000012
:10A940000100000002000000010000000100000002
:10A9500002000000010000000100000002000000F1
:10A9600001000000010000000200000001000000E2
:10A9700001000000020000000100000001000000D2
:10A9800002000000010000000100000002000000C1
:10A9900001000000010000000200000001000000B2
:10A9A00001000000020000000100000001000000A2
:10A9B0000200000001000000010000000200000091
:10A9C0000100000001000000020000000100000082
:10A9D0000100000002000000010000000100000072
:10A9E0000200000001000000010000000200000061
:10A9F0000100000001000000020000000100000052
:10AA00000100000002000000010000000100000041
:10AA10000200000001000000010000000200000030
:10AA20000100000001000000020000000100000021
:10AA30000100000002000000010000000100000011
:10AA40000200000001000000010000000200000000
:10AA500001000000010000000200000001000000F1
:10AA600001000000020000000100000001000000E1
:10AA700002000000010000000100000002000000D0
:10AA800001000000010000000200000001000000C1
:10AA900001000000020000000100000001000000B1
:10AAA00002000000010000000100000002000000A0
:10AAB0000100000001000000020000000100000091
:10AAC0000100000002000000010000000100000081
:10AAD0000200000001000000010000000200000070
:10AAE0000100000001000000020000000100000061
:10AAF0000100000002000000010000000100000051
:10AB0000020000000100000001000000020000003F
:10AB10000100000001000000020000000100000030
:10AB20000100000002000000010000000100000020
:10AB3000020000000100000001000000020000000F
:10AB40000100000001000000020000000100000000
:10AB500001000000020000000100000001000000F0
:10AB600002000000010000000100000002000000DF
:10AB700001000000010000000200000001000000D0
:10AB800001000000020000000100000001000000C0
:10AB900002000000010000000100000002000000AF
:10ABA00001000000010000000200000001000000A0
:10ABB0000100000002000000010000000100000090
:10ABC000020000000100000001000000020000007F
:10ABD0000100000001000000020000000100000070
:10ABE0000100000002000000010000000100000060
:10ABF000020000000100000001000000020000004F
:10AC0000010000000100000002000000010000003F
:10AC1000010000000200000001000000010000002F
:10AC2000020000000100000001000000020000001E
:10AC3000010000000100000002000000010000000F
:10AC400001000000020000000100000001000000FF
:10AC500002000000010000000100000002000000EE
:10AC600001000000010000000200000001000000DF
:10AC700001000000020000000100000001000000CF
:10AC800002000000010000000100000002000000BE
:10AC900001000000010000000200000001000000AF
:10ACA000010000000200000001000000010000009F
:10ACB000020000000100000001000000020000008E
:10ACC000010000000100000002000000010000007F
:10ACD000010000000200000001000000010000006F
:10ACE000020000000100000001000000020000005E
:10ACF000010000000100000002000000010000004F
:10AD0000010000000200000001000000010000003E
:10AD1000020000000100000001000000020000002D
:10AD2000010000000100000002000000010000001E
:10AD3000010000000200000001000000010000000E
:10AD400002000000010000000100000002000000FD
:10AD500001000000010000000200000001000000EE
:10AD600001000000020000000100000001000000DE
:10AD700002000000010000000100000002000000CD
:10AD800001000000010000000200000001000000BE
:10AD900001000000020000000100000001000000AE
:10ADA000020000000100000001000000020000009D
:10ADB000010000000100000002000000010000008E
:10ADC000010000000200000001000000010000007E
:10ADD000020000000100000001000000020000006D
:10ADE000010000000100000002000000010000005E
:10ADF000010000000200000001000000010000004E
:10AE0000020000000100000001000000020000003C
:10AE1000010000000100000002000000010000002D
:10AE2000010000000200000001000000010000001D
:10AE3000020000000100000001000000020000000C
:10AE400001000000010000000200000001000000FD
:10AE500001000000020000000100000001000000ED
:10AE600002000000010000000100000002000000DC
:10AE700001000000010000000200000001000000CD
:10AE800001000000020000000100000001000000BD
:10AE900002000000010000000100000002000000AC
:10AEA000010000000100000002000000010000009D
:10AEB000010000000200000001000000010000008D
:10AEC000020000000100000001000000020000007C
:10AED000010000000100000002000000010000006D
:10AEE000010000000200000001000000010000005D
:10AEF000020000000100000001000000020000004C
:10AF0000010000000100000002000000010000003C
:10AF1000010000000200000001000000010000002C
:10AF2000020000000100000001000000020000001B
:10AF3000010000000100000002000000010000000C
:10AF400001000000020000000100000001000000FC
:10AF500002000000010000000100000002000000EB
:10AF600001000000010000000200000001000000DC
:10AF700001000000020000000100000001000000CC
:10AF800002000000010000000100000002000000BB
:10AF900001000000010000000200000001000000AC
:10AFA000010000000200000001000000010000009C
:10AFB000020000000100000001000000020000008B
:10AFC000010000000100000002000000010000007C
:10AFD000010000000200000001000000010000006C
:10AFE000020000000100000001000000020000005B
:10AFF000010000000100000002000000010000004C
:10B00000010000000200000001000000010000003B
:10B01000020000000100000001000000020000002A
:10B02000010000000100000002000000010000001B
:10B03000010000000200000001000000010000000B
:10B0400002000000010000000100000002000000FA
:10B0500001000000010000000200000001000000EB
:10B0600001000000020000000100000001000000DB
:10B0700002000000010000000100000002000000CA
:10B0800001000000010000000200000001000000BB
:10B0900001000000020000000100000001000000AB
:10B0A000020000000100000001000000020000009A
:10B0B000010000000100000002000000010000008B
:10B0C000010000000200000001000000010000007B
:10B0D000020000000100000001000000020000006A
:10B0E000010000000100000002000000010000005B
:10B0F000010000000200000001000000010000004B
:10B100000200000001000000010000000200000039
:10B11000010000000100000002000000010000002A
:10B12000010000000200000001000000010000001A
:10B130000200000001000000010000000200000009
:10B1400001000000010000000200000001000000FA
:10B1500001000000020000000100000001000000EA
:10B1600002000000010000000100000002000000D9
:10B1700001000000010000000200000001000000CA
:10B1800001000000020000000100000001000000BA
:10B1900002000000010000000100000002000000A9
:10B1A000010000000100000002000000010000009A
:10B1B000010000000200000001000000010000008A
:10B1C0000200000001000000010000000200000079
:10B1D000010000000100000002000000010000006A
:10B1E000010000000200000001000000010000005A
:10B1F0000200000001000000010000000200000049
:10B200000100000001000000020000000100000039
:10B210000100000002000000010000000100000029
:10B220000200000001000000010000000200000018
:10B230000100000001000000020000000100000009
:10B2400001000000020000000100000001000000F9
:10B2500002000000010000000100000002000000E8
:10B2600001000000010000000200000001000000D9
:10B2700001000000020000000100000001000000C9
:10B2800002000000010000000100000002000000B8
:10B2900001000000010000000200000001000000A9
:10B2A0000100000002000000010000000100000099
:10B2B0000200000001000000010000000200000088
:10B2C0000100000001000000020000000100000079
:10B2D0000100000002000000010000000100000069
:10B2E0000200000001000000010000000200000058
:10B2F0000100000001000000020000000100000049
:10B300000100000002000000010000000100000038
:10B310000200000001000000010000000200000027
:10B320000100000001000000020000000100000018
:10B330000100000002000000010000000100000008
:10B3400002000000010000000100000002000000F7
:10B3500001000000010000000200000001000000E8
:10B3600001000000020000000100000001000000D8
:10B3700002000000010000000100000002000000C7
:10B3800001000000010000000200000001000000B8
:10B3900001000000020000000100000001000000A8
:10B3A0000200000001000000010000000200000097
:10B3B0000100000001000000020000000100000088
:10B3C0000100000002000000010000000100000078
:10B3D0000200000001000000010000000200000067
:10B3E0000100000001000000020000000100000058
:10B3F0000100000002000000010000000100000048
:10B400000200000001000000010000000200000036
:10B410000100000001000000020000000100000027
:10B420000100000002000000010000000100000017
:10B430000200000001000000010000000200000006
:10B4400001000000010000000200000001000000F7
:10B4500001000000020000000100000001000000E7
:10B4600002000000010000000100000002000000D6
:10B4700001000000010000000200000001000000C7
:10B4800001000000020000000100000001000000B7
:10B4900002000000010000000100000002000000A6
:10B4A0000100000001000000020000000100000097
:10B4B0000100000002000000010000000100000087
:10B4C0000200000001000000010000000200000076
:10B4D0000100000001000000020000000100000067
:10B4E0000100000002000000010000000100000057
:10B4F0000200000001000000010000000200000046
:10B500000100000001000000020000000100000036
:10B510000100000002000000010000000100000026
:10B520000200000001000000010000000200000015
:10B530000100000001000000020000000100000006
:10B5400001000000020000000100000001000000F6
:10B5500002000000010000000100000002000000E5
:10B5600001000000010000000200000001000000D6
:10B5700001000000020000000100000001000000C6
:10B5800002000000010000000100000002000000B5
:10B5900001000000010000000200000001000000A6
:10B5A0000100000002000000010000000100000096
:10B5B0000200000001000000010000000200000085
:10B5C0000100000001000000020000000100000076
:10B5D0000100000002000000010000000100000066
:10B5E0000200000001000000010000000200000055
:10B5F0000100000001000000020000000100000046
:10B600000100000002000000010000000100000035
:10B610000200000001000000010000000200000024
:10B620000100000001000000020000000100000015
:10B630000100000002000000010000000100000005
:10B6400002000000010000000100000002000000F4
:10B6500001000000010000000200000001000000E5
:10B6600001000000020000000100000001000000D5
:10B6700002000000010000000100000002000000C4
:10B6800001000000010000000200000001000000B5
:10B6900001000000020000000100000001000000A5
:10B6A0000200000001000000010000000200000094
:10B6B0000100000001000000020000000100000085
:10B6C0000100000002000000010000000100000075
:10B6D0000200000001000000010000000200000064
:10B6E0000100000001000000020000000100000055
:10B6F0000100000002000000010000000100000045
:10B700000200000001000000010000000200000033
:10B710000100000001000000020000000100000024
:10B720000100000002000000010000000100000014
:10B730000200000001000000010000000200000003
:10B7400001000000010000000200000001000000F4
:10B7500001000000020000000100000001000000E4
:10B7600002000000010000000100000002000000D3
:10B7700001000000010000000200000001000000C4
:10B7800001000000020000000100000001000000B4
:10B7900002000000010000000100000002000000A3
:10B7A0000100000001000000020000000100000094
:10B7B0000100000002000000010000000100000084
:10B7C0000200000001000000010000000200000073
:10B7D0000100000001000000020000000100000064
:10B7E0000100000002000000010000000100000054
:10B7F0000200000001000000010000000200000043
:10B800000100000001000000020000000100000033
:10B810000100000002000000010000000100000023
:10B820000200000001000000010000000200000012
:10B830000100000001000000020000000100000003
:10B8400001000000020000000100000001000000F3
:10B8500002000000010000000100000002000000E2
:10B8600001000000010000000200000001000000D3
:10B8700001000000020000000100000001000000C3
:10B8800002000000010000000100000002000000B2
:10B8900001000000010000000200000001000000A3
:10B8A0000100000002000000010000000100000093
:10B8B0000200000001000000010000000200000082
:10B8C0000100000001000000020000000100000073
:10B8D0000100000002000000010000000100000063
:10B8E0000200000001000000010000000200000052
:10B8F0000100000001000000020000000100000043
:10B900000100000002000000010000000100000032
:10B910000200000001000000010000000200000021
:10B920000100000001000000020000000100000012
:10B930000100000002000000010000000100000002
:10B9400002000000010000000100000002000000F1
:10B9500001000000010000000200000001000000E2
:10B9600001000000020000000100000001000000D2
:10B9700002000000010000000100000002000000C1
:10B9800001000000010000000200000001000000B2
:10B9900001000000020000000100000001000000A2
:10B9A0000200000001000000010000000200000091
:10B9B0000100000001000000020000000100000082
:10B9C0000100000002000000010000000100000072
:10B9D0000200000001000000010000000200000061
:10B9E0000100000001000000020000000100000052
:10B9F0000100000002000000010000000100000042
:10BA00000200000001000000010000000200000030
:10BA10000100000001000000020000000100000021
:10BA20000100000002000000010000000100000011
:10BA30000200000001000000010000000200000000
:10BA400001000000010000000200000001000000F1
:10BA500001000000020000000100000001000000E1
:10BA600002000000010000000100000002000000D0
:10BA700001000000010000000200000001000000C1
:10BA800001000000020000000100000001000000B1
:10BA900002000000010000000100000002000000A0
:10BAA0000100000001000000020000000100000091
:10BAB0000100000002000000010000000100000081
:10BAC0000200000001000000010000000200000070
:10BAD0000100000001000000020000000100000061
:10BAE0000100000002000000010000000100000051
:10BAF0000200000001000000010000000200000040
:10BB00000100000001000000020000000100000030
:10BB10000100000002000000010000000100000020
:10BB2000020000000100000001000000020000000F
:10BB30000100000001000000020000000100000000
:10BB400001000000020000000100000001000000F0
:10BB500002000000010000000100000002000000DF
:10BB600001000000010000000200000001000000D0
:10BB700001000000020000000100000001000000C0
:10BB800002000000010000000100000002000000AF
:10BB900001000000010000000200000001000000A0
:10BBA0000100000002000000010000000100000090
:10BBB000020000000100000001000000020000007F
:10BBC0000100000001000000020000000100000070
:10BBD0000100000002000000010000000100000060
:10BBE000020000000100000001000000020000004F
:10BBF0000100000001000000020000000100000040
:10BC0000010000000200000001000000010000002F
:10BC1000020000000100000001000000020000001E
:10BC2000010000000100000002000000010000000F
:10BC300001000000020000000100000001000000FF
:10BC400002000000010000000100000002000000EE
:10BC500001000000010000000200000001000000DF
:10BC600001000000020000000100000001000000CF
:10BC700002000000010000000100000002000000BE
:10BC800001000000010000000200000001000000AF
:10BC9000010000000200000001000000010000009F
:10BCA000020000000100000001000000020000008E
:10BCB000010000000100000002000000010000007F
:10BCC000010000000200000001000000010000006F
:10BCD000020000000100000001000000020000005E
:10BCE000010000000100000002000000010000004F
:10BCF000010000000200000001000000010000003F
:10BD0000020000000100000001000000020000002D
:10BD1000010000000100000002000000010000001E
:10BD2000010000000200000001000000010000000E
:10BD300002000000010000000100000002000000FD
:10BD400001000000010000000200000001000000EE
:10BD500001000000020000000100000001000000DE
:10BD600002000000010000000100000002000000CD
:10BD700001000000010000000200000001000000BE
:10BD800001000000020000000100000001000000AE
:10BD9000020000000100000001000000020000009D
:10BDA000010000000100000002000000010000008E
:10BDB000010000000200000001000000010000007E
:10BDC000020000000100000001000000020000006D
:10BDD000010000000100000002000000010000005E
:10BDE000010000000200000001000000010000004E
:10BDF000020000000100000001000000020000003D
:10BE0000010000000100000002000000010000002D
:10BE1000010000000200000001000000010000001D
:10BE2000020000000100000001000000020000000C
:10BE300001000000010000000200000001000000FD
:10BE400001000000020000000100000001000000ED
:10BE500002000000010000000100000002000000DC
:10BE600001000000010000000200000001000000CD
:10BE700001000000020000000100000001000000BD
:10BE800002000000010000000100000002000000AC
:10BE9000010000000100000002000000010000009D
:10BEA000010000000200000001000000010000008D
:10BEB000020000000100000001000000020000007C
:10BEC000010000000100000002000000010000006D
:10BED000010000000200000001000000010000005D
:10BEE000020000000100000001000000020000004C
:10BEF000010000000100000002000000010000003D
:10BF0000010000000200000001000000010000002C
:10BF1000020000000100000001000000020000001B
:10BF2000010000000100000002000000010000000C
:10BF300001000000020000000100000001000000FC
:10BF400002000000010000000100000002000000EB
:10BF500001000000010000000200000001000000DC
:10BF600001000000020000000100000001000000CC
:10BF700002000000010000000100000002000000BB
:10BF800001000000010000000200000001000000AC
:10BF9000010000000200000001000000010000009C
:10BFA000020000000100000001000000020000008B
:10BFB000010000000100000002000000010000007C
:10BFC000010000000200000001000000010000006C
:10BFD000020000000100000001000000020000005B
:10BFE000010000000100000002000000010000004C
:10BFF000010000000200000001000000010000003C
:10C00000020000000100000001000000020000002A
:10C01000010000000100000002000000010000001B
:10C02000010000000200000001000000010000000B
:10C0300002000000010000000100000002000000FA
:10C0400001000000010000000200000001000000EB
:10C0500001000000020000000100000001000000DB
:10C0600002000000010000000100000002000000CA
:10C0700001000000010000000200000001000000BB
:10C0800001000000020000000100000001000000AB
:10C09000020000000100000001000000020000009A
:10C0A000010000000100000002000000010000008B
:10C0B000010000000200000001000000010000007B
:10C0C000020000000100000001000000020000006A
:10C0D000010000000100000002000000010000005B
:10C0E000010000000200000001000000010000004B
:10C0F000020000000100000001000000020000003A
:10C10000010000000100000002000000010000002A
:10C11000010000000200000001000000010000001A
:10C120000200000001000000010000000200000009
:10C1300001000000010000000200000001000000FA
:10C1400001000000020000000100000001000000EA
:10C1500002000000010000000100000002000000D9
:10C1600001000000010000000200000001000000CA
:10C1700001000000020000000100000001000000BA
:10C1800002000000010000000100000002000000A9
:10C19000010000000100000002000000010000009A
:10C1A000010000000200000001000000010000008A
:10C1B0000200000001000000010000000200000079
:10C1C000010000000100000002000000010000006A
:10C1D000010000000200000001000000010000005A
:10C1E0000200000001000000010000000200000049
:10C1F000010000000100000002000000010000003A
:10C200000100000002000000010000000100000029
:10C210000200000001000000010000000200000018
:10C220000100000001000000020000000100000009
:10C2300001000000020000000100000001000000F9
:10C2400002000000010000000100000002000000E8
:10C2500001000000010000000200000001000000D9
:10C2600001000000020000000100000001000000C9
:10C2700002000000010000000100000002000000B8
:10C2800001000000010000000200000001000000A9
:10C290000100000002000000010000000100000099
:10C2A0000200000001000000010000000200000088
:10C2B0000100000001000000020000000100000079
:10C2C0000100000002000000010000000100000069
:10C2D0000200000001000000010000000200000058
:10C2E0000100000001000000020000000100000049
:10C2F0000100000002000000010000000100000039
:10C300000200000001000000010000000200000027
:10C310000100000001000000020000000100000018
:10C320000100000002000000010000000100000008
:10C3300002000000010000000100000002000000F7
:10C3400001000000010000000200000001000000E8
:10C3500001000000020000000100000001000000D8
:10C3600002000000010000000100000002000000C7
:10C3700001000000010000000200000001000000B8
:10C3800001000000020000000100000001000000A8
:10C390000200000001000000010000000200000097
:10C3A0000100000001000000020000000100000088
:10C3B0000100000002000000010000000100000078
:10C3C0000200000001000000010000000200000067
:10C3D0000100000001000000020000000100000058
:10C3E0000100000002000000010000000100000048
:10C3F0000200000001000000010000000200000037
:10C400000100000001000000020000000100000027
:10C410000100000002000000010000000100000017
:10C420000200000001000000010000000200000006
:10C4300001000000010000000200000001000000F7
:10C4400001000000020000000100000001000000E7
:10C4500002000000010000000100000002000000D6
:10C4600001000000010000000200000001000000C7
:10C4700001000000020000000100000001000000B7
:10C4800002000000010000000100000002000000A6
:10C490000100000001000000020000000100000097
:10C4A0000100000002000000010000000100000087
:10C4B0000200000001000000010000000200000076
:10C4C0000100000001000000020000000100000067
:10C4D0000100000002000000010000000100000057
:10C4E0000200000001000000010000000200000046
:10C4F0000100000001000000020000000100000037
:10C500000100000002000000010000000100000026
:10C510000200000001000000010000000200000015
:10C520000100000001000000020000000100000006
:10C5300001000000020000000100000001000000F6
:10C5400002000000010000000100000002000000E5
:10C5500001000000010000000200000001000000D6
:10C5600001000000020000000100000001000000C6
:10C5700002000000010000000100000002000000B5
:10C5800001000000010000000200000001000000A6
:10C590000100000002000000010000000100000096
:10C5A0000200000001000000010000000200000085
:10C5B0000100000001000000020000000100000076
:10C5C0000100000002000000010000000100000066
:10C5D0000200000001000000010000000200000055
:10C5E0000100000001000000020000000100000046
:10C5F0000100000002000000010000000100000036
:10C600000200000001000000010000000200000024
:10C610000100000001000000020000000100000015
:10C620000100000002000000010000000100000005
:10C6300002000000010000000100000002000000F4
:10C6400001000000010000000200000001000000E5
:10C6500001000000020000000100000001000000D5
:10C6600002000000010000000100000002000000C4
:10C6700001000000010000000200000001000000B5
:10C6800001000000020000000100000001000000A5
:10C690000200000001000000010000000200000094
:10C6A0000100000001000000020000000100000085
:10C6B0000100000002000000010000000100000075
:10C6C0000200000001000000010000000200000064
:10C6D0000100000001000000020000000100000055
:10C6E0000100000002000000010000000000000046
:10C6F000000000000000000000000000000000003A
:10C700000000000000000000000000000000000029
:10C710000000000000000000000000000000000019
:10C720000000000000000000000000000000000009
:10CCF000010000000200000001000000010000002F
:10CD0000020000000100000001000000020000001D
:10CD1000010000000100000002000000010000000E
:10CD200001000000020000000100000001000000FE
:10CD300002000000010000000100000002000000ED
:10CD400001000000010000000200000001000000DE
:10CD500001000000020000000100000001000000CE
:10CD600002000000010000000100000002000000BD
:10CD700001000000010000000200000001000000AE
:10CD8000010000000200000001000000010000009E
:10CD9000020000000100000001000000020000008D
:10CDA000010000000100000002000000010000007E
:10CDB000010000000200000001000000010000006E
:10CDC000020000000100000001000000020000005D
:10CDD000010000000100000002000000010000004E
:10CDE000010000000200000001000000010000003E
:10CDF000020000000100000001000000020000002D
:10CE0000010000000100000002000000010000001D
:10CE1000010000000200000001000000010000000D
:10CE200002000000010000000100000002000000FC
:10CE300001000000010000000200000001000000ED
:10CE400001000000020000000100000001000000DD
:10CE500002000000010000000100000002000000CC
:10CE600001000000010000000200000001000000BD
:10CE700001000000020000000100000001000000AD
:10CE8000020000000100000001000000020000009C
:10CE9000010000000100000002000000010000008D
:10CEA000010000000200000001000000010000007D
:10CEB000020000000100000001000000020000006C
:10CEC000010000000100000002000000010000005D
:10CED000010000000200000001000000010000004D
:10CEE000020000000100000001000000020000003C
:10CEF000010000000100000002000000010000002D
:10CF0000010000000200000001000000010000001C
:10CF1000020000000100000001000000020000000B
:10CF200001000000010000000200000001000000FC
:10CF300001000000020000000100000001000000EC
:10CF400002000000010000000100000002000000DB
:10CF500001000000010000000200000001000000CC
:10CF600001000000020000000100000001000000BC
:10CF700002000000010000000100000002000000AB
:10CF8000010000000100000002000000010000009C
:10CF9000010000000200000001000000010000008C
:10CFA000020000000100000001000000020000007B
:10CFB000010000000100000002000000010000006C
:10CFC000010000000200000001000000010000005C
:10CFD000020000000100000001000000020000004B
:10CFE000010000000100000002000000010000003C
:10CFF000010000000200000001000000010000002C
:10D00000020000000100000001000000020000001A
:10D01000010000000100000002000000010000000B
:10D0200001000000020000000100000001000000FB
:10D0300002000000010000000100000002000000EA
:10D0400001000000010000000200000001000000DB
:10D0500001000000020000000100000001000000CB
:10D0600002000000010000000100000002000000BA
:10D0700001000000010000000200000001000000AB
:10D08000010000000200000001000000010000009B
:10D09000020000000100000001000000020000008A
:10D0A000010000000100000002000000010000007B
:10D0B000010000000200000001000000010000006B
:10D0C000020000000100000001000000020000005A
:10D0D000010000000100000002000000010000004B
:10D0E000010000000200000001000000010000003B
:10D0F000020000000100000001000000020000002A
:10D10000010000000100000002000000010000001A
:10D11000010000000200000001000000010000000A
:10D1200002000000010000000100000002000000F9
:10D1300001000000010000000200000001000000EA
:10D1400001000000020000000100000001000000DA
:10D1500002000000010000000100000002000000C9
:10D1600001000000010000000200000001000000BA
:10D1700001000000020000000100000001000000AA
:10D180000200000001000000010000000200000099
:10D19000010000000100000002000000010000008A
:10D1A000010000000200000001000000010000007A
:10D1B0000200000001000000010000000200000069
:10D1C000010000000100000002000000010000005A
:10D1D000010000000200000001000000010000004A
:10D1E0000200000001000000010000000200000039
:10D1F000010000000100000002000000010000002A
:10D200000100000002000000010000000100000019
:10D210000200000001000000010000000200000008
:10D2200001000000010000000200000001000000F9
:10D2300001000000020000000100000001000000E9
:10D2400002000000010000000100000002000000D8
:10D2500001000000010000000200000001000000C9
:10D2600001000000020000000100000001000000B9
:10D2700002000000010000000100000002000000A8
:10D280000100000001000000020000000100000099
:10D290000100000002000000010000000100000089
:10D2A0000200000001000000010000000200000078
:10D2B0000100000001000000020000000100000069
:10D2C0000100000002000000010000000100000059
:10D2D0000200000001000000010000000200000048
:10D2E0000100000001000000020000000100000039
:10D2F0000100000002000000010000000100000029
:10D300000200000001000000010000000200000017
:10D310000100000001000000020000000100000008
:10D3200001000000020000000100000001000000F8
:10D3300002000000010000000100000002000000E7
:10D3400001000000010000000200000001000000D8
:10D3500001000000020000000100000001000000C8
:10D3600002000000010000000100000002000000B7
:10D3700001000000010000000200000001000000A8
:10D380000100000002000000010000000100000098
:10D390000200000001000000010000000200000087
:10D3A0000100000001000000020000000100000078
:10D3B0000100000002000000010000000100000068
:10D3C0000200000001000000010000000200000057
:10D3D0000100000001000000020000000100000048
:10D3E0000100000002000000010000000100000038
:10D3F0000200000001000000010000000200000027
:10D400000100000001000000020000000100000017
:10D410000100000002000000010000000100000007
:10D4200002000000010000000100000002000000F6
:10D4300001000000010000000200000001000000E7
:10D4400001000000020000000100000001000000D7
:10D4500002000000010000000100000002000000C6
:10D4600001000000010000000200000001000000B7
:10D4700001000000020000000100000001000000A7
:10D480000200000001000000010000000200000096
:10D490000100000001000000020000000100000087
:10D4A0000100000002000000010000000100000077
:10D4B0000200000001000000010000000200000066
:10D4C0000100000001000000020000000100000057
:10D4D0000100000002000000010000000100000047
:10D4E0000200000001000000010000000200000036
:10D4F0000100000001000000020000000100000027
:10D500000100000002000000010000000100000016
:10D510000200000001000000010000000200000005
:10D5200001000000010000000200000001000000F6
:10D5300001000000020000000100000001000000E6
:10D5400002000000010000000100000002000000D5
:10D5500001000000010000000200000001000000C6
:10D5600001000000020000000100000001000000B6
:10D5700002000000010000000100000002000000A5
:10D580000100000001000000020000000100000096
:10D590000100000002000000010000000100000086
:10D5A0000200000001000000010000000200000075
:10D5B0000100000001000000020000000100000066
:10D5C0000100000002000000010000000100000056
:10D5D0000200000001000000010000000200000045
:10D5E0000100000001000000020000000100000036
:10D5F0000100000002000000010000000100000026
:10D600000200000001000000010000000200000014
:10D610000100000001000000020000000100000005
:10D6200001000000020000000100000001000000F5
:10D6300002000000010000000100000002000000E4
:10D6400001000000010000000200000001000000D5
:10D6500001000000020000000100000001000000C5
:10D6600002000000010000000100000002000000B4
:10D6700001000000010000000200000001000000A5
:10D680000100000002000000010000000100000095
:10D690000200000001000000010000000200000084
:10D6A0000100000001000000020000000100000075
:10D6B0000100000002000000010000000100000065
:10D6C0000200000001000000010000000200000054
:10D6D0000100000001000000020000000100000045
:10D6E0000100000002000000010000000100000035
:10D6F0000200000001000000010000000200000024
:10D700000100000001000000020000000100000014
:10D710000100000002000000010000000100000004
:10D7200002000000010000000100000002000000F3
:10D7300001000000010000000200000001000000E4
:10D7400001000000020000000100000001000000D4
:10D7500002000000010000000100000002000000C3
:10D7600001000000010000000200000001000000B4
:10D7700001000000020000000100000001000000A4
:10D780000200000001000000010000000200000093
:10D790000100000001000000020000000100000084
:10D7A0000100000002000000010000000100000074
:10D7B0000200000001000000010000000200000063
:10D7C0000100000001000000020000000100000054
:10D7D0000100000002000000010000000100000044
:10D7E0000200000001000000010000000200000033
:10D7F0000100000001000000020000000100000024
:10D800000100000002000000010000000100000013
:10D810000200000001000000010000000200000002
:10D8200001000000010000000200000001000000F3
:10D8300001000000020000000100000001000000E3
:10D8400002000000010000000100000002000000D2
:10D8500001000000010000000200000001000000C3
:10D8600001000000020000000100000001000000B3
:10D8700002000000010000000100000002000000A2
:10D880000100000001000000020000000100000093
:10D890000100000002000000010000000100000083
:10D8A0000200000001000000010000000200000072
:10D8B0000100000001000000020000000100000063
:10D8C0000100000002000000010000000100000053
:10D8D0000200000001000000010000000200000042
:10D8E0000100000001000000020000000100000033
:10D8F0000100000002000000010000000100000023
:10D900000200000001000000010000000200000011
:10D910000100000001000000020000000100000002
:10D9200001000000020000000100000001000000F2
:10D9300002000000010000000100000002000000E1
:10D9400001000000010000000200000001000000D2
:10D9500001000000020000000100000001000000C2
:10D9600002000000010000000100000002000000B1
:10D9700001000000010000000200000001000000A2
:10D980000100000002000000010000000100000092
:10D990000200000001000000010000000200000081
:10D9A0000100000001000000020000000100000072
:10D9B0000100000002000000010000000100000062
:10D9C0000200000001000000010000000200000051
:10D9D0000100000001000000020000000100000042
:10D9E0000000000000000000000000000000000037
:10D9F0000000000000000000000000000000000027
:10DA00000000000000000000000000000000000016
:10DA10000000000000000000000000000000000006
:10ECF00020ED0008C400002040000000B44C0008D3
:10ED000020ED000800000020C0000000C44C0008F6
:10ED100060ED00080401002004040000C44C000859
:10ED20000024F400000000000000000001020304C1
:10ED300006070809000000000102030401020304A1
:10ED400006070809000000000000535544565355BB
:10ED50004F4B5355440053554F4B000000000000EB
:04000005080030C1FE
:00000001FF
